:100000000C9490000C949D020C9470020C94B80017
:100010000C94B8000C94B8000C94B8000C94B80080
:100020000C94B8000C94B8000C94B8000C945A05C9
:100030000C94B8000C9432050C94B8000C94B800E1
:100040000C94D6020C94B8000C94C80A0C948D0A37
:100050000C94B8000C94B8000C94B8000C94B80040
:100060000C94B8000C94B80008000000BE9224491B
:10007000123EABAAAA2ABECDCCCC4C3E00000080DA
:10008000BEABAAAAAA3E00000000BF000000803F4D
:100090000000000000084178D3BB4387D1133D190D
:1000A0000E3CC3BD4282AD2B3E68EC8276BED98F3A
:1000B000E1A93E4C80EFFFBE01C4FF7F3F0000007E
:1000C000000000000000240027002A0000000000BB
:1000D000250028002B000000000023002600290036
:1000E00004040404040404040202020202020303DE
:1000F00003030303010204081020408001020408E6
:100100001020010204081020000000070002010076
:10011000000304060000000000000000EE17B41702
:1001200011241FBECFEFD8E0DEBFCDBF12E0A0E0AC
:10013000B1E0E6EDFCE302C005900D92AE37B107E9
:10014000D9F725E0AEE7B2E001C01D92A035B207B5
:10015000E1F710E0CFE8D0E004C02197FE010E9453
:10016000581ECE38D107C9F70E94020B0C942419EF
:100170000C940000CF92DF92EF92FF920F931F93A7
:10018000CF93DF936C01EB017B01E40EF51E00E0E1
:1001900010E0CE15DF0561F06991D601ED91FC917B
:1001A0000190F081E02DC6010995080F191FF1CFCC
:1001B000C801DF91CF911F910F91FF90EF90DF90D9
:1001C000CF900895833081F028F4813099F0823007
:1001D000A1F008958630A9F08730B9F08430D1F4C9
:1001E000809180008F7D03C0809180008F77809305
:1001F0008000089584B58F7702C084B58F7D84BD5B
:1002000008958091B0008F7703C08091B0008F7DFA
:100210008093B000089584E080938100109285005F
:10022000109284008091DA029091DB020196909303
:10023000DB028093DA0208950F931F93CF93DF932D
:10024000EC0188819981009729F02A813B8126174A
:10025000370788F48B016F5F7F4F0E94541A009715
:1002600061F0998388831B830A832C813D81232B32
:1002700011F4FC01108281E001C080E0DF91CF9198
:100280001F910F910895CF93DF93EC01888199819D
:10029000009711F00E94BC19198218821D821C82DD
:1002A0001B821A82DF91CF910895EF92FF920F93F4
:1002B0001F93CF93DF93EC017B018A01BA010E9467
:1002C0001C01811104C0CE010E94430107C01D839F
:1002D0000C83B701888199810E94271BCE01DF9191
:1002E000CF911F910F91FF90EF900895CF93DF93DF
:1002F000EC016115710559F0FB0101900020E9F74F
:100300003197AF01461B570B0E94550102C00E9456
:100310004301CE01DF91CF910895FC01808191814D
:100320000C94BC19FB01DC0111961C921E921396D1
:100330001C921E92129715961C921E921497169656
:100340001C928617970749F06081718161157105CC
:1003500021F0448155810C9455010895FC011182CE
:100360001082138212821582148216826115710521
:1003700051F0FB0101900020E9F73197AF01461BD6
:10038000570B0C94550108958E3008F08E508770ED
:10039000806480937C0080917A00806480937A00EE
:1003A00080917A0086FDFCCF8091780020917900C1
:1003B00090E0922B0895CF93DF93282F30E0F9013E
:1003C000E85FFE4F8491F901EC50FF4FD491F901A1
:1003D000E052FF4FC491CC2391F081110E94E200C2
:1003E000EC2FF0E0EE0FFF1FEA52FF4FA591B49102
:1003F000EC91ED2381E090E021F480E002C080E008
:1004000090E0DF91CF9108951F93CF93DF93282F32
:1004100030E0F901E85FFE4F8491F901EC50FF4FA5
:10042000D491F901E052FF4FC491CC23C9F0162FAB
:1004300081110E94E200EC2FF0E0EE0FFF1FE45369
:10044000FF4FA591B4918FB7F894111105C09C91FD
:10045000ED2FE095E92302C0EC91ED2BEC938FBFDB
:10046000DF91CF911F910895CF93DF9390E0FC012E
:10047000EC50FF4F2491FC01E052FF4F8491882300
:1004800061F190E0880F991FFC01EE53FF4FC59179
:10049000D491FC01E453FF4FA591B491611109C0BF
:1004A0009FB7F8948881209582238883EC912E232E
:1004B0000BC0623061F49FB7F8943881822F809529
:1004C00083238883EC912E2B2C939FBF06C08FB77C
:1004D000F894E8812E2B28838FBFDF91CF91089568
:1004E0001F920F920FB60F9211242F933F934F93A9
:1004F0005F936F937F938F939F93AF93BF93EF938C
:10050000FF938091800290918102892B29F0E091E4
:100510008002F09181020995FF91EF91BF91AF9117
:100520009F918F917F916F915F914F913F912F910B
:100530000F900FBE0F901F9018951F920F920FB63D
:100540000F9211242F933F934F935F936F937F9359
:100550008F939F93AF93BF93EF93FF9380917E020E
:1005600090917F02892B29F0E0917E02F0917F0229
:100570000995FF91EF91BF91AF919F918F917F91DD
:100580006F915F914F913F912F910F900FBE0F9000
:100590001F9018952FB7F8946091E1027091E202D4
:1005A0008091E3029091E4022FBF08951F920F9271
:1005B0000FB60F9211242F933F938F939F93AF9376
:1005C000BF938091E1029091E202A091E302B09189
:1005D000E4023091E00223E0230F2D3720F401964E
:1005E000A11DB11D05C026E8230F0296A11DB11D56
:1005F0002093E0028093E1029093E202A093E30251
:10060000B093E4028091DC029091DD02A091DE02C1
:10061000B091DF020196A11DB11D8093DC02909381
:10062000DD02A093DE02B093DF02BF91AF919F91F4
:100630008F913F912F910F900FBE0F901F901895A3
:1006400061E089E00C9404027093B1026093B002FF
:1006500081111DC060E089E00E94040210928100B7
:1006600010926F0010928000109281001092A202EE
:100670001092A3021092A4021092A5021092F90304
:100680001092FA031092FB031092FC030895643653
:10069000710511F40C94200383E080936F00072E02
:1006A000000C880B990B0E94581C20E030E048ECAD
:1006B00052E40E94AE1B60939E0270939F0280934F
:1006C000A0029093A10220E030E042E054E40E94B6
:1006D0005D1D0E94201C70939D0260939C0228E087
:1006E00032E0C901861B970B90939B0280939A027C
:1006F0008836910534F488E690E0909389008093E1
:10070000880080919A0290919B028D3621E0920799
:1007100014F08CE691E0909389008093880008950E
:100720000F931F9384E690E09093B1028093B00200
:100730000E9420038091A6029091A702A091A80296
:10074000B091A902892B8A2B8B2B69F40E94CA02D3
:100750006093A6027093A7028093A8029093A902C7
:1007600081E080938B020E94CA020091A602109140
:10077000A7022091A8023091A902DC01CB01801BC5
:10078000910BA20BB30B81399F45A140B1057CF0C1
:1007900060E070E080E00E9424031092A6021092B4
:1007A000A7021092A8021092A90210928B021F9128
:1007B0000F91089560E070E080E00E94240387E0DC
:1007C0000E94DB01019721F460E087E00E940402AF
:1007D00084E00E94DB01019721F460E084E00E9444
:1007E000040283E00E94DB01019721F460E083E0D2
:1007F0000E940402809190028111109290028091D7
:100800008602811110928602809182029091830269
:10081000A0918402B0918502892B8A2B8B2B41F009
:10082000109282021092830210928402109285022A
:100830008091A6029091A702A091A802B091A9026E
:10084000892B8A2B8B2B41F01092A6021092A702C3
:100850001092A8021092A9028091870290918802BA
:10086000A0918902B0918A02892B8A2B8B2B41F0AF
:1008700010928702109288021092890210928A02C6
:100880008091950290919602A0919702B091980262
:10089000892B8A2B8B2B41F0109295021092960295
:1008A00010929702109298028091990281111092F1
:1008B00099028091910290919202A0919302B0913D
:1008C0009402892B8A2B8B2B41F01092910210926B
:1008D0009202109293021092940280918C02909155
:1008E0008D02A0918E02B0918F02892B8A2B8B2BC7
:1008F00041F010928C0210928D0210928E02109292
:100900008F028091A2029091A302A091A402B091C3
:10091000A502892B8A2B8B2B41F01092A2021092F8
:10092000A3021092A4021092A5028091AE029091AF
:10093000AF02892B21F01092AF021092AE020895FF
:100940000F931F938823D9F061E087E00E9404028F
:100950008091AA029091AB02A091AC02B091AD023D
:10096000892B8A2B8B2B61F50E94CA026093AA0205
:100970007093AB028093AC029093AD0221C00E94B1
:10098000CA020091AA021091AB022091AC023091F0
:10099000AD02DC01CB01801B910BA20BB30B8133A9
:1009A0009547A105B10564F060E087E00E9404026C
:1009B0001092AA021092AB021092AC021092AD02F9
:1009C0001F910F910895CF92DF92EF92FF92BC0199
:1009D000990F880B990B0E94581C9B01AC0160E099
:1009E00070E080E894E40E94AE1B20E030E040E834
:1009F0005FE30E943C1B20E030E44CE156E40E949F
:100A00005D1D0E94151D6B017C0129E537E44CEB4F
:100A100053E30E945D1DA70196010E945D1D23E71F
:100A20003FE745E759E30E943D1BA70196010E945D
:100A30005D1D2BEE3FEF43E95AE30E943D1B9B01F6
:100A4000AC0160E070E080E89FE30E94AE1B23E30E
:100A500033E948E853E40E943C1BFF90EF90DF909D
:100A6000CF9008951F920F920FB60F9211242F93DB
:100A70003F934F935F936F937F938F939F93AF9326
:100A8000BF93EF93FF9360E089E00E94040210920D
:100A90008100FF91EF91BF91AF919F918F917F91D5
:100AA0006F915F914F913F912F910F900FBE0F90DB
:100AB0001F9018951F920F920FB60F9211242F932B
:100AC0003F934F935F936F937F938F939F93AF93D6
:100AD000BF93EF93FF9361E089E00E9404028CEFE3
:100AE0009FEF9093850080938400FF91EF91BF91D9
:100AF000AF919F918F917F916F915F914F913F91B6
:100B00002F910F900FBE0F901F9018950F931F936A
:100B1000CF93DF938C01EB0187E291E00E94B9074C
:100B2000C8010E9418088DE291E00E94B907CE0129
:100B30000E941808DF91CF911F910F910C94AB0781
:100B4000CF92DF92EF92FF927C016B0187E291E0FE
:100B50000E94B907C7010E9418088DE291E00E9427
:100B6000B9070D2C000CEE08FF08F7FE0CC08DE253
:100B70000E94A00766277727CB016C197D098E0993
:100B80009F094AE003C04AE0C701B6010E94CB07B3
:100B9000FF90EF90DF90CF900C94AB0708950F93E8
:100BA0001F93CF93DF93FC01A685B7858D01005C71
:100BB0001F4FE8018881998101968F739927AD01B4
:100BC0004E5B5F4FEA012881398182179307D1F389
:100BD000E80128813981A20FB31F6C93A685B785E0
:100BE000A05CBF4F11969C938E93A689B7892C91D8
:100BF00081E090E0078C02C0880F991F0A94E2F709
:100C0000822B8C9381E081A30488F589E02D80817B
:100C10008064808381E090E0DF91CF911F910F91FC
:100C20000895FC0181A1882329F0A489B5898C91BC
:100C300086FFFBCF11A20895FC01A485B585FD01B7
:100C4000E05CFF4F208131813296808191812817AD
:100C5000390779F080819181A80FB91F8C9120818B
:100C600031812F5F3F4F2F7333273183208390E0F3
:100C700008958FEF9FEF0895DC011C96ED91FC9194
:100C80001D97DF01A05CBF4F2D913C9111971296EB
:100C90008D919C9111972817390739F08D919C916E
:100CA000E80FF91F808190E008958FEF9FEF08957E
:100CB000FC0124853585F901E05CFF4F808191813D
:100CC000329620813181821B930B8F73992708956F
:100CD0004F925F926F927F928F929F92AF92BF924C
:100CE000CF92DF92EF92FF920F931F93CF93DF93F8
:100CF00000D000D0CDB7DEB74C01270138010B8DF5
:100D00001C8DDC015D965C934E935C975B967C93A7
:100D10006E935A975F963C932E935E97D8961C924B
:100D2000FC0110AA11AA12AA13AA80E090E0AFE772
:100D3000B3E484AB95ABA6ABB7AB84E690E0A0E0A0
:100D4000B0E084A795A7A6A7B7A7118F008F20E0D2
:100D500030E0A901C301B2010E94A91B87FD7AC03E
:100D600020E030E0A901C601B5010E94A91B87FD62
:100D700071C020E030E0A9016F89788D898D9A8D4E
:100D80000E94A91B87FD66C0D4014D925D926D92B1
:100D90007C921397F401A482B582C682D7828F8990
:100DA000988DA98DBA8D80879187A287B387448655
:100DB0005586668677862DEC3CEC4CEC5DE3C601EF
:100DC000B5010E945D1D69837A838B839C83F40146
:100DD000608B718B828B938B2DEC3CEC4CEC5DE348
:100DE0006F89788D898D9A8D0E94AE1B6B017C0175
:100DF000D40154966D937D938D939C9357970130B6
:100E0000110541F5A301920160E070E0CB010E9461
:100E10003C1BF401648775878687978729813A810F
:100E20004B815C8160E070E0CB010E943C1BD401EF
:100E300050966D937D938D939C935397A701960144
:100E400060E070E0CB010E943C1BF401648B758B69
:100E5000868B978B0E94CA02D4019C960D911D919E
:100E60002D913C919F97DC01CB01801B910BA20B34
:100E7000B30BF40180A391A3A2A3B3A30F900F908F
:100E80000F900F90DF91CF911F910F91FF90EF90F6
:100E9000DF90CF90BF90AF909F908F907F906F909A
:100EA0005F904F900895EF92FF920F931F93CF930F
:100EB000DF9300D0CDB7DEB786EE92E00E945806F1
:100EC000892BA9F1EE24E39486EE92E00E94580665
:100ED000892B69F186EE92E00E941C06F82E898328
:100EE0001A8200910C0310910D030F5F1F4FB80180
:100EF00088E093E00E941C01882399F02091080368
:100F00003091090380910C0390910D03BE016F5F36
:100F10007F4F820F931F0E94271B10930D03009396
:100F20000C038AE0F812D0CFE092E502CDCF0F900B
:100F30000F90DF91CF911F910F91FF90EF90089547
:100F4000E091E602F091E7020190F081E02D682F38
:100F500086EE92E00994CF93DF938DE00E94A00784
:100F6000EC018AE00E94A0078C0F9D1FDF91CF91BA
:100F70000895009769F0FC0101900020E9F731978E
:100F8000AF01481B590BBC0186EE92E00C94BA00ED
:100F900080E090E008958F929F92AF92BF92EF927F
:100FA000FF920F931F93CF93DF93CDB7DEB7A19737
:100FB0000FB6F894DEBF0FBECDBF162F042F19A2B7
:100FC000423008F40AE07E0121E2E20EF11C802E9C
:100FD000912CA12CB12C612FA50194010E94FF1D21
:100FE000029F1019112481E0E81AF1081A3014F454
:100FF000105D01C0195CF7011083122F732FCA0115
:10100000232B242B252B39F7C7010E94B907A19662
:101010000FB6F894DEBF0FBECDBFDF91CF911F9109
:101020000F91FF90EF90BF90AF909F908F90089599
:10103000EF92FF920F931F93CF93DF937C01C0E059
:10104000D0E000E010E0F70184819581C817D9074E
:10105000D0F4E091E602F091E7020190F081E02DFA
:10106000D7012D913C912115310529F0D901AC0F03
:10107000BD1F6C9101C060E086EE92E00995080FFB
:10108000191F2196E0CFC801DF91CF911F910F91D9
:10109000FF90EF900895FC014481558180910C03ED
:1010A00090910D038417950780F08091080390912B
:1010B0000903009751F0608171816115710529F074
:1010C0000E942E1B21E0892B09F020E0822F089539
:1010D000CF93DF93EC018091BD049091BE04009703
:1010E000B1F04091BF045091C0042C813D81421762
:1010F000530758F0688179810E94271B8C819D815C
:101100009093C2048093C10418C00E94BC198881C6
:1011100099819093BE048093BD048A819B819093B2
:10112000C0048093BF048C819D819093C2048093FE
:10113000C104198218821B821A821D821C82DF91CF
:10114000CF9108958F929F92AF92BF92CF92DF92EC
:10115000EF92FF92CF93DF93EC0188AD811130C005
:10116000EC8DFD8DC080D180E280F380CCA2DDA229
:10117000EEA2FFA2EA8DFB8D80819181A281B381D5
:1011800088A799A7AAA7BBA78CA89DA8AEA8BFA807
:10119000A5019401C701B6010E94081D181664F04C
:1011A00088A899A8AAA8BBA8A5019401C701B6015F
:1011B0000E94A91B87FF04C08CA29DA2AEA2BFA261
:1011C00081E088AFDF91CF91FF90EF90DF90CF90DB
:1011D000BF90AF909F908F9008952F923F924F9223
:1011E0005F926F927F928F929F92AF92BF92CF92B7
:1011F000DF92EF92FF920F931F93CF93DF93EC0157
:101200006A017B0148015901A9019801C701B60192
:101210000E94081D87FF4EC0C8AAD9AAEAAAFBAA45
:101220008CAA9DAAAEAABFAA88AD882309F442C0A1
:101230002C8C3D8CF1014080518062807380A5012F
:101240009401C301B2010E94081D181634F4F10183
:1012500080829182A282B3820DC0A7019601C30150
:10126000B2010E94A91B87FF05C0F101C082D18293
:10127000E282F3828CA09DA0AEA0BFA0CCA8DDA886
:10128000EEA8FFA8A7019601C501B4010E94081DA0
:10129000181664F0C8A8D9A8EAA8FBA8A701960167
:1012A000C501B4010E94A91B87FF04C0CCA2DDA226
:1012B000EEA2FFA2DF91CF911F910F91FF90EF90CF
:1012C000DF90CF90BF90AF909F908F907F906F9066
:1012D0005F904F903F902F9008952F923F924F92A2
:1012E0005F926F927F928F929F92AF92BF92CF92B6
:1012F000DF92EF92FF920F931F93CF93DF93CDB7BF
:10130000DEB72B970FB6F894DEBF0FBECDBFDC0162
:10131000D896BC91B983B11102C01982E4C09B87F1
:101320008A870E94CA026A837B838C839D83EA85B5
:10133000FB8580A191A1A2A1B3A14A815B816C81AF
:101340007D81481B590B6A0B7B0B84A595A5A6A52F
:10135000B7A5481759076A077B07F8F2028CF38D87
:10136000E02D80809180A280B380AA85BB855E96A7
:10137000ED91FC915F97A50194016081718182815B
:1013800093810E943C1B2B013C01EA85FB8520894F
:101390003189428953890E945D1DAA85BB85949637
:1013A0002D913D914D915C9197970E943D1B6B0152
:1013B0007C01EA85FB8564A375A386A397A324A873
:1013C00035A806A917A99101A8010E94081D1816A1
:1013D0001CF4C101D80118C0AA85BB85D0968D9197
:1013E0009D910D90BC91A02D8E839F83A887B98776
:1013F0009C01AD01C701B6010E94A91B87FF0AC06D
:101400008E819F81A885B985EA85FB8584A395A3F4
:10141000A6A3B7A3AA85BB851C962D913D914D919E
:101420005C911F97C301B2010E945D1DEA85FB8597
:1014300024A135A146A157A10E943D1B6B017C014F
:10144000AA85BB8598962D913D914D915C919B9776
:10145000C501B4010E943C1BEA85FB8524893589BE
:10146000468957890E945D1D9B01AC01C701B601E9
:101470000E943C1B6B017C019101A8010E94081D88
:101480001816BCF0AA85BB85D0962C90D097D19623
:101490003C90D197D2960C91D297D3961C91910102
:1014A000A801B601C7010E94A91B87FD02C0160151
:1014B0008701AA85BB855C96ED91FC915D97C10182
:1014C000D80180839183A283B383EA85FB8580A6BC
:1014D00091A6A2A6B3A68A819B81AC81BD8180A37F
:1014E00091A3A2A3B3A389812B960FB6F894DEBF74
:1014F0000FBECDBFDF91CF911F910F91FF90EF9065
:10150000DF90CF90BF90AF909F908F907F906F9023
:101510005F904F903F902F9008951F920F920FB6BB
:101520000F9211242F933F938F939F93EF93FF93E9
:1015300020910405309105058091060590910705DD
:101540002817390731F48091C1008F7D8093C10045
:1015500014C0E0910605F0910705EC53FB4F208184
:10156000809106059091070501968F7399279093B6
:101570000705809306052093C600FF91EF919F9188
:101580008F913F912F910F900FBE0F901F90189544
:101590001F920F920FB60F9211242F934F935F93C8
:1015A0008F939F93EF93FF938091C00082FD1CC0A7
:1015B0002091C600809148059091490501968F734E
:1015C000992740914A0550914B058417950771F072
:1015D000E0914805F0914905E85FFA4F2083909328
:1015E00049058093480502C08091C600FF91EF91A4
:1015F0009F918F915F914F912F910F900FBE0F9000
:101600001F901895CF93DF93CDB7DEB7C655D1099C
:101610000FB6F894DEBF0FBECDBF789484B582605C
:1016200084BD84B5816084BD85B5826085BD85B586
:10163000816085BD80916E00816080936E00109204
:10164000810080918100826080938100809181007F
:101650008160809381008091800081608093800010
:101660008091B10084608093B1008091B00081606E
:101670008093B00080917A00846080937A0080919A
:101680007A00826080937A0080917A0081608093F2
:101690007A0080917A00806880937A001092C1006D
:1016A00060E082E00E94340261E082E00E94040275
:1016B00061E089E00E94340260E089E00E94040257
:1016C00061E087E00E94340260E087E00E9404024B
:1016D00061E089E00E94340260E089E00E94040237
:1016E00061E083E00E94340260E083E00E94040233
:1016F00061E084E00E94340260E084E00E94040221
:1017000061E086E00E94340260E086E00E9404020C
:1017100062E085E00E94340262E08DE00E943402C3
:1017200062E08CE00E94340262E08BE00E943402AE
:1017300062E08AE00E94340200E010E020EA32E435
:1017400040E050E060EF71E481E094E00E94ED0839
:1017500060912D0470912E0480912F04909130049B
:101760000E94561C9B01AC0160E070E88BE395E49D
:101770000E94AE1B6B017C019B01AC0160911104C6
:101780007091120480911304909114040E945D1DC5
:1017900060931104709312048093130490931404C3
:1017A000A7019601609115047091160480911704A9
:1017B000909118040E94AE1B609315047093160458
:1017C000809317049093180428EBC22E2BE0D22E9E
:1017D000E12CF12CC0922D04D0922E04E0922F0423
:1017E000F092300400E010E02AE233E440E050E000
:1017F00068EC72E480EC93E00E94ED086091EC03E9
:101800007091ED038091EE039091EF030E94561CBE
:101810009B01AC0160E070E88BE395E40E94AE1B95
:101820004B015C019B01AC016091D0037091D1032D
:101830008091D2039091D3030E945D1D6093D003E9
:101840007093D1038093D2039093D303A5019401A5
:101850006091D4037091D5038091D6039091D70302
:101860000E94AE1B6093D4037093D5038093D6037C
:101870009093D703C092EC03D092ED03E092EE0375
:10188000F092EF0300E010E028EC32E440E050E09A
:1018900060E772E483E893E00E94ED086091AF0393
:1018A0007091B0038091B1039091B2030E94561CD5
:1018B0009B01AC0160E070E88BE395E40E94AE1BF5
:1018C0004B015C019B01AC01609193037091940307
:1018D00080919503909196030E945D1D6093930300
:1018E000709394038093950390939603A5019401BC
:1018F00060919703709198038091990390919A0356
:101900000E94AE1B60939703709398038093990392
:1019100090939A03C092AF03D092B003E092B103C8
:10192000F092B20381E094E00E94A20880EC93E080
:101930000E94A20883E893E00E94A20884E690E057
:10194000909389008093880083E080936F001092C9
:101950008000109281008BE091E090937F02809351
:101960007E0280916900836080936900E89AE0912B
:10197000FA02F091FB0281E090E09C0100900603E6
:1019800002C0220F331F0A94E2F72083E091F6028F
:10199000F091F7021082E091F802F091F9022FEC39
:1019A000208310920703E091FC02F091FD02408138
:1019B0009C010090020302C0220F331F0A94E2F739
:1019C000242B2083E091FC02F091FD0240819C01D8
:1019D0000090030302C0220F331F0A94E2F7242B66
:1019E0002083E091FC02F091FD0240819C01009077
:1019F000040302C0220F331F0A94E2F7242B208332
:101A0000E091FC02F091FD0220810090050302C0EC
:101A1000880F991F0A94E2F780958223808368ECEF
:101A200070E088E093E00E941C0187E291E00E9450
:101A3000B90788E793E00E9418088DE291E00E94C0
:101A4000B9078FE093E00E9418080E94AB078E014F
:101A50000F5F1F4F83E00E94C4010E94E3040E94B5
:101A6000201C072E000C880B990B0E94581C6093B9
:101A7000FD037093FE038093FF039093000420E026
:101A800030E04AEA52E40E94081D18164CF584E042
:101A900090E09093D7028093D60283E090E09093F9
:101AA000D9028093D8026FE271E08DEB94E00E943E
:101AB000760164E273E0C8010E94920168E773E076
:101AC000CE01C9960E949201B801CE01C9960E942A
:101AD0008605CE01C9960E948D01C8010E948D0124
:101AE00086E00E94C4010E94E3040E94201C7093BF
:101AF000D1026093D002683371050CF44AC084E0CF
:101B000090E09093D9028093D80267E371E08DEB67
:101B100094E00E9476016DEB74E0C8010E9492018E
:101B20006CE573E0CE01C9960E949201B801CE0126
:101B3000C9960E948605CE01C9960E948D01C801F2
:101B40000E948D018091D8029091D90227E0289FB0
:101B5000B001299F700D1124615F7C4FC8010E9464
:101B6000920168E773E0CE01C9960E949201B80124
:101B7000CE01C9960E948605CE01C9960E948D01AC
:101B8000C8010E948D0167EB71E08DEB94E00E942B
:101B9000760185E00E94DB01019741F58091D80232
:101BA0009091D9020197029708F51092D7021092EE
:101BB000D60283E090E09093D9028093D80264E249
:101BC00073E0C8010E94920168E773E0CE01C996F4
:101BD0000E949201B801CE01C9960E948605CE01ED
:101BE000C9960E948D01C8010E948D018DE00E945E
:101BF000DB01019709F05DC08091D2029091D30280
:101C0000A091D402B091D502892B8A2B8B2B51F451
:101C10000E94CA026093D2027093D3028093D402CE
:101C20009093D5020E94CA02C090D202D090D302F3
:101C3000E090D402F090D502DC01CB018C199D0913
:101C4000AE09BF098D3D9540A105B1056CF18091AC
:101C5000D8029091D902059739F01092D9021092CA
:101C6000D8026FE073E002C062E373E0C8010E9433
:101C7000920168E773E0CE01C9960E949201B80113
:101C8000CE01C9960E948605CE01C9960E948D019B
:101C9000C8010E948D011092D2021092D3021092BC
:101CA000D4021092D50205C08DE00E94DB01892B81
:101CB00091F38091E5028823C9F165E471E0C801E0
:101CC0000E94AE01C8010E944B08F82EC8010E9474
:101CD0008D01FF2059F167EB71E088E093E00E94ED
:101CE000760167EB71E08DEB94E00E947601109233
:101CF000E50285E090E09093D9028093D80262E3F8
:101D000073E0C8010E94920168E773E0CE01C996B2
:101D10000E949201B801CE01C9960E948605CE01AB
:101D2000C9960E948D01C8010E948D01E090D802E1
:101D3000F090D90232E0E316F10409F413C244F43E
:101D4000E114F10491F0EA94EF2809F443C0C7C606
:101D500084E0E816F10409F41EC50CF4F6C3A5E00E
:101D6000EA16F10409F4A6C5BAC60E94DA0385E0B2
:101D70000E94DB01892B09F0B2C681E090E09093CC
:101D8000D9028093D8021092A6021092A702109254
:101D9000A8021092A90267EB71E08DEB94E00E941B
:101DA00076011092900266E173E0CE01C9960E941E
:101DB000920168E773E0C8010E949201BE01675C6E
:101DC0007F4FC8010E948605C8010E948D01CE0187
:101DD000C9966BC68091AE029091AF0203975CF1F9
:101DE00084E090E09093D9028093D80265E571E099
:101DF0008DEB94E00E9476016DEB74E0C8010E94C7
:101E000092016CE573E0CE01C9960E949201B8017F
:101E1000CE01C9960E948605CE01C9960E948D0109
:101E2000C8010E948D0167EB71E08DEB94E00E9488
:101E30007601109290028091CE029091CF02C397CA
:101E40000CF488C08091910290919202A09193022B
:101E5000B0919402892B8A2B8B2B51F40E94CA02D9
:101E600060939102709392028093930290939402F4
:101E70000E94CA02C0909102D0909202E090930218
:101E8000F0909402DC01CB018C199D09AE09BF09C9
:101E9000813D9740A105B1050CF464C060E083E08A
:101EA0000E94040260E084E00E94040210928B020F
:101EB00082E090E09093D9028093D8021092AF0212
:101EC0001092AE026DE173E0CE01C9960E949201BC
:101ED00068E773E0C8010E949201BE01675C7F4F12
:101EE000C8010E948605C8010E948D01CE01C996D5
:101EF0000E948D011092A6021092A7021092A802D1
:101F00001092A9021092820210928302109284020F
:101F10001092850210928702109288021092890214
:101F200010928A0281E0809399020E94CA02609313
:101F30009502709396028093970290939802109264
:101F400091021092920210929302109294021092B7
:101F5000900208C010929102109292021092930285
:101F6000109294028091AE029091AF02892B71F48D
:101F70000E94900380918B02811108C081E090E063
:101F80009093AF028093AE0280939002E090AE02F5
:101F9000F090AF021E141F040CF0D1C0809190028B
:101FA000882309F478C060E070E080E00E94240398
:101FB0008091870290918802A0918902B0918A0253
:101FC000892B8A2B8B2B51F40E94CA0260938702C3
:101FD000709388028093890290938A028091B20262
:101FE0009091B302892B19F50E94CA028090870252
:101FF00090908802A0908902B0908A02DC01CB0107
:1020000088199909AA09BB09813B9D4AA140B105DC
:1020100074F060E083E00E9404021092900281E07C
:1020200090E09093B3028093B20280938602C090B6
:10203000B202D090B3021C141D042CF50E94CA02F7
:102040008090870290908802A0908902B0908A02C6
:10205000DC01CB0188199909AA09BB098938934188
:10206000A105B10584F060E083E00E9404025FEF07
:10207000C51AD50AD092B302C092B2021092900251
:1020800081E08093860261E083E00E94040260E0C8
:1020900084E00E94040280918602882309F44FC0E4
:1020A0008091820290918302A0918402B091850276
:1020B000892B8A2B8B2B51F40E94CA0260938202D7
:1020C0007093830280938402909385020E94CA02D7
:1020D0008090820290908302A0908402B09085024A
:1020E000DC01CB0188199909AA09BB0981349E47F3
:1020F000A540B105BCF060E084E00E9404020E94AB
:10210000900380918B0281111AC03FEFE31AF30A0A
:10211000F092AF02E092AE021092860281E08093CC
:1021200090020DC061E084E00E94040260E070E073
:1021300080E00E94240360E083E00E94040220E02B
:1021400030E048E452E46091FD037091FE03809119
:10215000FF03909100040E94081D18160CF0A0C007
:1021600081E09FC08091990281119EC081E094E03E
:102170000E946D0980EC93E00E946D0983E893E072
:102180000E946D098091CE029091CF02883791050F
:102190000CF4ABC0C090FD03D090FE03E090FF03B1
:1021A000F090000420E030E048E452E4C701B601BA
:1021B0000E94A91B87FF19C184E690E09093B102A9
:1021C0008093B0020E94200320E030E048EC52E40B
:1021D0006091BC037091BD038091BE039091BF03D9
:1021E0000E94AE1B20E030E84BEB56E40E945D1DE0
:1021F0000E94271C6B017C016093B8027093B902A6
:102200008093BA029093BB0220E030E048EC52E4A5
:1022100060917F037091800380918103909182038C
:102220000E94AE1B20E030E44CE156E40E945D1DAC
:102230000E94271C4B015C016093B4027093B502AD
:102240008093B6029093B70280910001811109C179
:1022500080910001882309F440C120E030E048E487
:1022600052E46091FD037091FE038091FF03909111
:1022700000040E94081D18161CF481E00E94A004AE
:1022800020E030E048E452E46091FD037091FE03E9
:102290008091FF03909100040E94A91B87FF1FC437
:1022A00080E00E94A0041BC40E94CA02C090950254
:1022B000D0909602E0909702F0909802DC01CB015A
:1022C0008C199D09AE09BF09813E9349A440B1050F
:1022D0000CF44CCF10929502109296021092970235
:1022E000109298021092990241CF809191029091A0
:1022F0009202A0919302B0919402892B8A2B8B2B8E
:1023000051F40E94CA0260939102709392028093EA
:102310009302909394020E94CA02C0909102D090BE
:102320009202E0909302F0909402DC01CB018C19B0
:102330009D09AE09BF0989389341A105B10504F192
:1023400081E090E09093D9028093D802109290029D
:1023500066E173E0C8010E94920168E773E0CE0174
:10236000C9960E949201B801CE01C9960E948605C5
:10237000CE01C9960E948D01C8010E948D012CC01A
:1023800080918C0290918D02A0918E02B0918F026B
:10239000892B8A2B8B2B51F40E94CA0260938C02EA
:1023A00070938D0280938E0290938F020E94CA02D6
:1023B000C0908C02D0908D02E0908E02F0908F023F
:1023C000DC01CB018C199D09AE09BF098938934105
:1023D000A105B1050CF4DECE10929102109292028A
:1023E0001092930210929402D5CE20E030E046E99C
:1023F00052E4C701B6010E94081D181624F582E0B8
:1024000090E09093D7028093D60283E090E090937F
:10241000D9028093D80264E273E0C8010E9492015D
:1024200068E773E0CE01C9960E949201B801CE011F
:10243000C9960E948605CE01C9960E948D01C801E9
:102440000E948D01C1CE6091F9037091FA038091D1
:10245000FB039091FC030E94201C81E00E94240356
:10246000B3CE8091C0029091C102A091C202B091FE
:10247000C302892B8A2B8B2B51F40E94CA026093D2
:10248000C0027093C1028093C2029093C3020E9463
:10249000CA024090C0025090C1026090C202709087
:1024A000C302DC01CB0184199509A609B709881676
:1024B0009906AA06BB0660F4109200011092C002B1
:1024C0001092C1021092C2021092C30260E001C0D9
:1024D00061E083E00E940402BBCE8091BC02909137
:1024E000BD02A091BE02B091BF02892B8A2B8B2B1B
:1024F00051F40E94CA026093BC027093BD028093A3
:10250000BE029093BF020E94CA028090BC029090CB
:10251000BD02A090BE02B090BF02DC01CB018819C1
:102520009909AA09BB09C816D906EA06FB0608F0EC
:1025300094CE1092BC021092BD021092BE02109274
:10254000BF0281E08093000188CEE090D602F09037
:10255000D70260E083E00E94040260E084E00E9411
:10256000040281E00E94A0048090FD039090FE038D
:10257000A090FF03B090000420E030E044E952E472
:10258000C501B4010E94081D18160CF4A8C24090A1
:102590000101509002016090030170900401A301B9
:1025A0009201C501B4010E94081D18160CF097C2D3
:1025B00032E0E316F10409F4D9C044E0E416F10472
:1025C000B9F46DEB74E0C8010E9492016CE573E010
:1025D000CE01C9960E949201B801CE01C9960E940F
:1025E0008605CE01C9960E948D01C8010E948D0109
:1025F00060E083E00E94040260E084E00E94040244
:1026000020E030E040EE50E4609101017091020161
:1026100080910301909104010E943D1B9B01AC013C
:102620006091FD037091FE038091FF03909100047F
:102630000E94081D181634F460E070E080E00E94EB
:10264000240308C084E690E09093B1028093B00226
:102650000E9420038091CE029091CF02C39744F054
:102660001092A6021092A7021092A8021092A9023C
:1026700020E030E040E050E46091010170910201FF
:1026800080910301909104010E943C1B9B01AC01CD
:102690006091FD037091FE038091FF03909100040F
:1026A0000E94A91B87FF56C080E00E94A004809171
:1026B000A6029091A702A091A802B091A902892B2D
:1026C0008A2B8B2B51F40E94CA026093A60270934E
:1026D000A7028093A8029093A9020E94CA02809048
:1026E000A6029090A702A090A802B090A902DC01D7
:1026F000CB0188199909AA09BB0981349E47A540D5
:10270000B1050CF4ECC160E070E080E00E942403AD
:10271000F092D902E092D80287E08E9DB0018F9DA1
:10272000700D1124615F7C4FC8010E94920168E71F
:1027300073E0CE01C9960E949201B801CE01C996FC
:102740000E948605CE01C9960E948D01C8010E9493
:102750008D0103C081E00E94A0041092A602109295
:10276000A7021092A8021092A902B9C120E030E09D
:1027700040E050E4C301B2010E943D1B9B01AC014B
:10278000C501B4010E94A91B87FFA9C1F092D9021B
:10279000E092D802A4C160E070E080E00E942403CF
:1027A00060E083E00E94040260E084E00E94040292
:1027B00020E030E04CE752E46091FD037091FE03AD
:1027C0008091FF03909100040E94081D18165CF48C
:1027D000F092D702E092D60283E090E09093D90283
:1027E0008093D80202C00E94DA038091E502882318
:1027F00009F475C165E471E0C8010E94AE01C80129
:102800000E944B08F82EC8010E948D01FF20B9F0EC
:1028100067EB71E088E093E00E9476011092E50298
:1028200085E090E09093D9028093D80262E373E050
:10283000CE01C9960E94920168E773E040C16091A1
:102840000803709109036115710549F040910C036B
:1028500050910D038DEB94E00E94550104C08DEB67
:1028600094E00E9443016DEB74E0CE01C9960E9492
:1028700092016CE573E0C8010E949201BE01675CA1
:102880007F4FC8010E948605C8010E948D01CE01BC
:10289000C9960E948D0167EB71E08DEB94E00E9478
:1028A000760167EB71E088E093E00E947601109278
:1028B000E50215C11092AF021092AE021092C00252
:1028C0001092C1021092C2021092C3021092BC0276
:1028D0001092BD021092BE021092BF021092AA0284
:1028E0001092AB021092AC021092AD021092D20282
:1028F0001092D3021092D4021092D50267EB71E0CD
:102900008DEB94E00E94760120E030E04CE752E449
:102910006091FD037091FE038091FF03909100048C
:102920000E94081D18163CF08091CE029091CF02B3
:10293000893791056CF085E090E09093D702809301
:10294000D60283E090E09093D9028093D80202C02F
:102950000E94DA038091E502882309F4C0C065E68D
:1029600071E0C8010E94AE01C8010E944B08F82E18
:10297000C8010E948D01FF2079F167EB71E088E0CA
:1029800093E00E9476011092E5021092D902109213
:10299000D80267EB71E08DEB94E00E9476016DEB5D
:1029A00074E0CE01C9960E9492016CE573E0C80103
:1029B0000E949201BE01675C7F4FC8010E9486059C
:1029C000C8010E948D01CE01C9960E948D0110920E
:1029D000AF021092AE0283C064E771E0C8010E94AA
:1029E000AE01C8010E944B08F82EC8010E948D015B
:1029F000FF2019F167EB71E088E093E00E94760117
:102A00001092E50220E030E040E85FE360910101D0
:102A10007091020180910301909104010E943D1B7D
:102A2000609301017093020180930301909304016C
:102A30000E94201C6A577E4F31C066E971E0C801D0
:102A40000E94AE01C8010E944B08F82EC8010E94E6
:102A50008D01FF2009F443C067EB71E088E093E04B
:102A60000E9476011092E50220E030E040E85FE34A
:102A70006091010170910201809103019091040124
:102A80000E943C1B6093010170930201809303013B
:102A9000909304010E94201C68557E4FC8010E943B
:102AA000AE01C8010E946808C8010E948D016DEB4B
:102AB00074E0CE01C9960E9492016CE573E0C801F2
:102AC0000E949201BE01675C7F4FC8010E9486058B
:102AD000C8010E948D01CE01C9960E948D0180918E
:102AE000E502882341F067EB71E088E093E00E9403
:102AF00076011092E502E090D802F090D902C70169
:102B00000197039708F0ACC10E94CA028090C402EA
:102B10009090C502A090C602B090C7029B01AC0184
:102B2000281939094A095B0949015A013FE183160D
:102B30009104A104B10408F491C06093C40270939D
:102B4000C5028093C6029093C70282E00E94C4012E
:102B5000AC0180913A04811104C080913B048093C0
:102B60003A04E0913A04E150E0933A04F0E0EE0FC9
:102B7000FF1FE65CFB4F638174814617570771F4B2
:102B8000E0913C04F0E0EE0FFF1FE358FB4F808123
:102B900091819093CF028093CE0260C0548343838F
:102BA00080913B04982F992361F09150E92FF0E038
:102BB000EE0FFF1FE358FB4F20813181621773072F
:102BC00091F7E92FF0E09F01220F331F265C3B4F66
:102BD000D901AD5BBF4F4D935C9364177507F4F457
:102BE0009F5FEFEFE90F981758F6F0E0EE0FFF1F29
:102BF000E358FB4F20813181A92FB0E0AA0FBB1F02
:102C0000A358BB4F4D915C911197421753070CF09D
:102C1000B7CF518340832D933C93E2CFC9013097C6
:102C200009F4AECFDC01AF5BBF4F2D913C91029711
:102C30006C0145E4C40ED11CD6014D915C91421744
:102C400053070CF09DCFBC016D5B7F4FDB014D93B3
:102C50005C93D6012D933C933197E1CF6091FD03B6
:102C60007091FE038091FF03909100040E94201C4C
:102C70007AAF69AF8091D0029091D1029CAF8BAFB7
:102C80008091CE029091CF029EAF8DAF2196FFAE84
:102C9000EEAE21978091B0029091B10223969FAF42
:102CA0008EAF239760917F037091800380918103A1
:102CB000909182030E94201C25967FAF6EAF2597CE
:102CC0006091BC037091BD038091BE039091BF03DE
:102CD0000E94201C27967FAF6EAF27978091AE028F
:102CE0009091AF0229969FAF8EAF299761E773E06D
:102CF000C8010E9492016AE673E0CE0108960E9424
:102D0000920163E673E0CE010F960E94920168E79C
:102D100073E0CE0146960E94920165E573E0CE0114
:102D20004D960E9492016EE473E0CE0184960E945B
:102D3000920167E473E0CE018B960E94920160E4F9
:102D400073E0CE01C2960E9492010E94CA02809056
:102D5000CA029090CB02A090CC02B090CD029B0111
:102D6000AC01281939094A095B0949015A0139EEB0
:102D7000831633E09306A104B10408F463C06093A2
:102D8000CA027093CB028093CC029093CD028091C3
:102D9000C8029091C9028730910534F4019690934E
:102DA000C9028093C80204C01092C9021092C802DE
:102DB0002091C8023091C9022330310519F587E00E
:102DC0008E9DB0018F9D700D1124615F7C4FCE01EF
:102DD000875B9F4F0E949201BE016A5E7F4FCE01CA
:102DE000805B9F4F0E949201BE01675B7F4FCE01C7
:102DF000805B9F4F0E948605CE01805B9F4F0E94A3
:102E00008D011BC0F901EE0FFF1FE00FF11FE0ACB9
:102E1000F1AC47E0429FC001439F900D1124B801DF
:102E2000680F791FCE01875B9F4F0E949201B70107
:102E3000CE01875B9F4F0E94A005CE01875B9F4F0D
:102E40000E948D01AE01475C5F4F7A0157E0E51AA1
:102E5000F108C7010E948D01E016F106B9F780C0A4
:102E60000E94CA022091C8023091C9022230310565
:102E700024F01092C9021092C802C090CA02D090E9
:102E8000CB02E090CC02F090CD029B01AC012C195A
:102E90003D094E095F0969017A0131E3C31635E73F
:102EA000D306E104F1040CF45BC06093CA02709392
:102EB000CB028093CC029093CD028091C802909176
:102EC000C902181619060CF16091FD037091FE03FA
:102ED0008091FF03909100040E94201C6B017C01F3
:102EE00061E773E0C8010E949201B601C8010E9427
:102EF000A005C8010E948D018091C8029091C9026D
:102F000001969093C9028093C8028091C802909163
:102F1000C902019729F58091D8029091D90227E042
:102F2000289FB001299F700D1124615F7C4FC8015B
:102F30000E94920168E773E0CE01C9960E94920157
:102F4000B801CE01C9960E948605CE01C9960E949D
:102F50008D01C8010E948D011092C9021092C80211
:102F60000E9453070C942A0DCF93DF9388E093E0DF
:102F70000E948D01C0E4D3E02797CE010E948D010D
:102F800083E0CF30D807C1F780E493E00E948D0141
:102F900087E493E00E948D018EE493E00E948D010E
:102FA00085E593E00E948D018CE593E00E948D0100
:102FB00083E693E00E948D018AE693E00E948D01F2
:102FC00081E793E00E948D0188E793E00E948D01E4
:102FD0008DEB94E0DF91CF910C948D01AF92BF9275
:102FE000CF92DF92EF92FF920F931F93CF93DF93D5
:102FF0001092E9021092E80288EE93E0A0E0B0E0BF
:103000008093EA029093EB02A093EC02B093ED025E
:103010008FE091E09093E7028093E60288E095E0EC
:103020009093F3028093F20284EC94E09093F50283
:103030008093F40285EC90E09093F7028093F6027F
:1030400084EC90E09093F9028093F80280EC90E099
:103050009093FB028093FA0281EC90E09093FD0242
:103060008093FC0282EC90E09093FF028093FE023A
:1030700086EC90E0909301038093000384E08093BA
:10308000020383E08093030387E08093040385E0D9
:103090008093050381E08093060367EB71E08DEB7D
:1030A00094E00E94AE0180E280933A0480933B0456
:1030B00080E180933C0480E221E030E08150E82F01
:1030C000F0E0EE0FFF1FE65CFB4F34832383ED5BE4
:1030D000FF4F318320838111F1CF1F921F92DFE3D5
:1030E000DF93C0E8CF931F921F928FE6A82E82E154
:1030F000B82E83E8C82E8AE3D82EE12CF12C00E20A
:1031000011E421E031E049EF53E06DEF73E081E03D
:1031100094E00E9468061F9281E08F93DF93CF9323
:103120001F921F9221E031E04CEB53E06DEF73E012
:1031300080EC93E00E9468061F921F92DF93CF936A
:103140001F921F9221E031E04FE753E06DEF73E0F3
:1031500083E893E00E94680668EB71E088E793E0FB
:103160000E94AE0165EC71E081E793E00E94AE0140
:1031700067ED71E08AE693E00E94AE0169EE71E0CE
:1031800083E693E00E94AE0166EF71E08CE593E088
:103190000E94AE0166E072E085E593E00E94AE0118
:1031A00065E172E08EE493E00E94AE0165E272E0B8
:1031B00087E493E00E94AE0166E372E080E493E06E
:1031C0000E94AE0169E472E08FE093E00E94AE01DC
:1031D0006EE472E086E193E00E94AE0167E572E082
:1031E0008DE193E00E94AE016FE572E084E293E02E
:1031F0000E94AE0169E672E08BE293E00E94AE01AC
:103200006FE672E082E393E00E94AE0163E772E052
:1032100089E393E00E94AE018DB79EB742960FB648
:10322000F8949EBF0FBE8DBF67EB71E088E093E01E
:10323000DF91CF911F910F91FF90EF90DF90CF9092
:10324000BF90AF900C94AE01F8940C945E1ECF9397
:10325000DF938230910510F482E090E0E0914E051A
:10326000F0914F0520E030E0C0E0D0E0309711F160
:103270004081518148175907C0F04817590761F438
:1032800082819381209719F09B838A832BC090932E
:103290004F0580934E0526C02115310519F04217C0
:1032A000530718F49A01BE01DF01EF010280F38198
:1032B000E02DDCCF2115310509F1281B390B243015
:1032C000310590F412968D919C91139761157105BB
:1032D00021F0FB019383828304C090934F05809378
:1032E0004E05FD01329644C0FD01E20FF31F8193AC
:1032F0009193225031092D933C933AC020914C0573
:1033000030914D05232B41F42091070130910801A4
:1033100030934D0520934C05209105013091060115
:103320002115310541F42DB73EB740910901509167
:103330000A01241B350BE0914C05F0914D05E21775
:10334000F307A0F42E1B3F0B2817390778F0AC01C8
:103350004E5F5F4F2417350748F04E0F5F1F5093A5
:103360004D0540934C058193919302C0E0E0F0E05D
:10337000CF01DF91CF9108950F931F93CF93DF93E8
:10338000009709F48CC0FC013297138212820091DD
:103390004E0510914F050115110581F420813181F1
:1033A000820F931F20914C0530914D052817390746
:1033B00079F5F0934D05E0934C0571C0D80140E0DC
:1033C00050E0AE17BF0750F412962D913C91139721
:1033D000AD012115310509F1D901F3CF9D01DA01C4
:1033E0003383228360817181860F971F8217930731
:1033F00069F4EC0128813981260F371F2E5F3F4F7A
:10340000318320838A819B8193838283452B29F496
:10341000F0934F05E0934E0542C01396FC93EE9354
:103420001297ED01499159919E01240F351FE21722
:10343000F30771F480819181840F951F0296119694
:103440009C938E938281938113969C938E93129773
:10345000E0E0F0E0D80112968D919C9113970097CF
:1034600019F0F8018C01F6CF8D919C9198012E5F97
:103470003F4F820F931F20914C0530914D05281727
:10348000390769F4309729F410924F0510924E05D0
:1034900002C01382128210934D0500934C05DF91F8
:1034A000CF911F910F910895A0E0B0E0EAE5FAE115
:1034B0000C94251EEC01009721F4CB010E942719E2
:1034C000B8C0FC01E60FF71F9C0122503109E2173A
:1034D000F30708F4ACC0D9010D911C9111970617A0
:1034E0001707B0F00530110508F49FC0C801049714
:1034F0008617970708F499C002501109061B170B8D
:10350000019311936D937C93CF010E94BC198DC0E0
:103510005B01A01AB10A4C01800E911EA0914E05CC
:10352000B0914F0540E050E0E12CF12C109709F4E8
:103530004AC0A815B905D1F56D907C90119763012B
:1035400082E0C80ED11CCA14DB0480F1A3014A1921
:103550005B096A0182E0C80ED11C1296BC901297DA
:103560001396AC91B5E0CB16D10440F0B282A383A0
:1035700051834083D9016D937C930AC00E5F1F4F26
:10358000C301800F911FF90191838083EB2DFA2FE6
:10359000E114F10431F0D7011396FC93EE931297E6
:1035A00044C0F0934F05E0934E053FC08D919C9130
:1035B00011974817590708F4AC017D0112960D9038
:1035C000BC91A02DB3CF80914C0590914D058815ED
:1035D0009905E1F446175707C8F4809105019091C9
:1035E0000601009741F48DB79EB7409109015091B3
:1035F0000A01841B950BE817F907C8F4F0934D05F1
:10360000E0934C05F901718360830FC0CB010E94E8
:1036100027197C01009759F0A801BE010E941E1BCA
:10362000CE010E94BC19C70104C0CE0102C080E0D7
:1036300090E0CDB7DEB7EEE00C94411EFB01DC015B
:1036400002C001900D9241505040D8F70895FB01FF
:10365000DC0101900D920020E1F70895FB01DC01EF
:103660004150504030F08D910190801919F40020A4
:10367000B9F7881B990B08955058BB27AA270E94B9
:10368000541B0C94CE1C0E94C01C38F00E94C71C16
:1036900020F039F49F3F19F426F40C94BD1C0EF46D
:1036A000E095E7FB0C94B71CE92F0E94DF1C58F350
:1036B000BA17620773078407950720F079F4A6F517
:1036C0000C94011D0EF4E0950B2EBA2FA02D0B01CA
:1036D000B90190010C01CA01A0011124FF27591B57
:1036E00099F0593F50F4503E68F11A16F040A22F5D
:1036F000232F342F4427585FF3CF469537952795CE
:10370000A795F0405395C9F77EF41F16BA0B620BCC
:10371000730B840BBAF09150A1F0FF0FBB1F661F13
:10372000771F881FC2F70EC0BA0F621F731F841F56
:1037300048F4879577956795B795F7959E3F08F07C
:10374000B0CF9395880F08F09927EE0F979587953E
:1037500008950E94931C08F481E008950E94C21B02
:103760000C94CE1C0E94C71C58F00E94C01C40F054
:1037700029F45F3F29F00C94B71C51110C94021DE1
:103780000C94BD1C0E94DF1C68F39923B1F35523F0
:1037900091F3951B550BBB27AA2762177307840764
:1037A00038F09F5F5F4F220F331F441FAA1FA9F3FA
:1037B00035D00E2E3AF0E0E832D091505040E695E8
:1037C000001CCAF72BD0FE2F29D0660F771F881F49
:1037D000BB1F261737074807AB07B0E809F0BB0B3C
:1037E000802DBF01FF2793585F4F3AF09E3F510550
:1037F00078F00C94B71C0C94021D5F3FE4F3983EE4
:10380000D4F3869577956795B795F7959F5FC9F738
:10381000880F911D9695879597F90895E1E0660FB9
:10382000771F881FBB1F621773078407BA0720F032
:10383000621B730B840BBA0BEE1F88F7E09508959B
:103840000E94271C6894B1110C94021D08950E94D7
:10385000E71C88F09F5798F0B92F9927B751B0F01F
:10386000E1F0660F771F881F991F1AF0BA95C9F704
:1038700014C0B13091F00E94011DB1E008950C9484
:10388000011D672F782F8827B85F39F0B93FCCF337
:10389000869577956795B395D9F73EF49095809581
:1038A000709561957F4F8F4F9F4F0895E89409C0A1
:1038B00097FB3EF490958095709561957F4F8F4F63
:1038C0009F4F9923A9F0F92F96E9BB279395F69579
:1038D000879577956795B795F111F8CFFAF4BB0FF7
:1038E00011F460FF1BC06F5F7F4F8F4F9F4F16C05B
:1038F000882311F096E911C0772321F09EE8872FE5
:10390000762F05C0662371F096E8862F70E060E0A0
:103910002AF09A95660F771F881FDAF7880F969519
:10392000879597F90895990F0008550FAA0BE0E8BD
:10393000FEEF16161706E807F907C0F01216130671
:10394000E407F50798F0621B730B840B950B39F4B1
:103950000A2661F0232B242B252B21F408950A2617
:1039600009F4A140A6958FEF811D811D089597F957
:103970009F6780E870E060E008959FEF80EC089515
:1039800000240A941616170618060906089500243E
:103990000A9412161306140605060895092E0394B8
:1039A000000C11F4882352F0BB0F40F4BF2B11F42C
:1039B00060FF04C06F5F7F4F8F4F9F4F089557FD8B
:1039C0009058440F551F59F05F3F71F04795880F8D
:1039D00097FB991F61F09F3F79F087950895121624
:1039E00013061406551FF2CF4695F1DF08C01616D0
:1039F00017061806991FF1CF869571056105089481
:103A00000895E894BB2766277727CB0197F9089597
:103A10000E94931C08F48FEF089516F00C94CA1DB1
:103A20000C94BD1C68940C94B71C0E94E71CA8F36E
:103A30009923C1F3AEF3DF93CF931F930F93FF92BC
:103A4000C92FDD2788232AF02197660F771F881F4B
:103A5000DAF720E030E040E85FEB9FE3883920F0C0
:103A6000803E38F021968F770E943D1BE8E6F0E01B
:103A700004C00E943D1BE5E9F0E00E94D81D8B01C7
:103A8000BE01EC01FB2E6F5771097595771F880BEE
:103A9000990B0E94581C28E132E741E35FE30E9442
:103AA000701DAF2D9801AE01FF900F911F91CF9126
:103AB000DF910E94541B0C94CE1C0E94701D0C942C
:103AC000CE1C0E94C01C38F00E94C71C20F0952319
:103AD00011F00C94B71C0C94BD1C11240C94021D05
:103AE0000E94DF1C70F3959FC1F3950F50E0551FA6
:103AF000629FF001729FBB27F00DB11D639FAA2743
:103B0000F00DB11DAA1F649F6627B00DA11D661F91
:103B1000829F2227B00DA11D621F739FB00DA11DB2
:103B2000621F839FA00D611D221F749F3327A00D6C
:103B3000611D231F849F600D211D822F762F6A2F08
:103B400011249F5750409AF0F1F088234AF0EE0F6D
:103B5000FF1FBB1F661F771F881F91505040A9F79A
:103B60009E3F510580F00C94B71C0C94021D5F3FE2
:103B7000E4F3983ED4F3869577956795B795F795D6
:103B8000E7959F5FC1F7FE2B880F911D969587954E
:103B900097F908959F3F31F0915020F487957795DC
:103BA0006795B795880F911D9695879597F9089514
:103BB000DF93CF931F930F93FF92EF92DF927B01DE
:103BC0008C01689406C0DA2EEF010E94701DFE0180
:103BD000E894A5912591359145915591A6F3EF0172
:103BE0000E94541BFE019701A801DA9469F7DF9047
:103BF000EF90FF900F911F91CF91DF910895A1E277
:103C00001A2EAA1BBB1BFD010DC0AA1FBB1FEE1F56
:103C1000FF1FA217B307E407F50720F0A21BB30BA1
:103C2000E40BF50B661F771F881F991F1A9469F71D
:103C300060957095809590959B01AC01BD01CF0179
:103C400008952F923F924F925F926F927F928F9240
:103C50009F92AF92BF92CF92DF92EF92FF920F931B
:103C60001F93CF93DF93CDB7DEB7CA1BDB0B0FB625
:103C7000F894DEBF0FBECDBF09942A8839884888E2
:103C80005F846E847D848C849B84AA84B984C88478
:103C9000DF80EE80FD800C811B81AA81B981CE0F6F
:103CA000D11D0FB6F894DEBF0FBECDBFED01089554
:103CB000EE0FFF1F0590F491E02D099410E0CFE87E
:103CC000D0E004C0FE010E94581E2196C039D107E1
:063CD000C9F7F894FFCFD4
:103CD6000100007C4200005005200000000000CFDB
:103CE60005BA0058061C063C061106000020416F66
:103CF60012833A0000803F4D5154543A002F00542D
:103D06006F6F20686F7400417567657220746F6FFE
:103D160020686F74005475726E204F666620426F7D
:103D2600696C6572006661696C656420746F2073E6
:103D360074617274005475726E204F6E20426F6902
:103D46006C657200496E63726561736520536574B4
:103D5600506F696E7400496E6372656173652C20DD
:103D66006E6F773A20004465637265617365205310
:103D76006574506F696E740044656372656173653E
:103D86002C206E6F773A2000626F696C65722F7314
:103D96007461746500626F696C65722F74656D700D
:103DA6002F776174657200626F696C65722F746536
:103DB6006D702F617567657200626F696C65722F31
:103DC600666C616D6500626F696C65722F6D6573F7
:103DD600736167657300626F696C65722F706964E1
:103DE6002F66616E00626F696C65722F7069642F51
:103DF6006665656400626F696C65722F7069642F11
:103E0600706175736500626F696C65722F7374619A
:103E160072745F636F756E740049646C65005374E9
:103E2600617274696E670048656174696E67004304
:103E36006F6F6C20646F776E004572726F72004F01
:0E3E460066660057696E6420646F776E000038
:00000001FF
