:100000000C9490000C949D020C9470020C94B80017
:100010000C94B8000C94B8000C94B8000C94B80080
:100020000C94B8000C94B8000C94B8000C945A05C9
:100030000C94B8000C9432050C94B8000C94B800E1
:100040000C94D6020C94B8000C948E0A0C94530AAB
:100050000C94B8000C94B8000C94B8000C94B80040
:100060000C94B8000C94B80008000000BE9224491B
:10007000123EABAAAA2ABECDCCCC4C3E00000080DA
:10008000BEABAAAAAA3E00000000BF000000803F4D
:100090000000000000084178D3BB4387D1133D190D
:1000A0000E3CC3BD4282AD2B3E68EC8276BED98F3A
:1000B000E1A93E4C80EFFFBE01C4FF7F3F0000007E
:1000C000000000000000240027002A0000000000BB
:1000D000250028002B000000000023002600290036
:1000E00004040404040404040202020202020303DE
:1000F00003030303010204081020408001020408E6
:100100001020010204081020000000070002010076
:10011000000304060000000000000000A617681796
:1001200011241FBECFEFD8E0DEBFCDBF12E0A0E0AC
:10013000B1E0E2E5FCE302C005900D92A237B10701
:10014000D9F725E0A2E7B2E001C01D92AB34B207B7
:10015000E1F710E0CFE8D0E004C02197FE010E9453
:10016000161ECE38D107C9F70E94C80A0C94E218AF
:100170000C940000CF92DF92EF92FF920F931F93A7
:10018000CF93DF936C01EB017B01E40EF51E00E0E1
:1001900010E0CE15DF0561F06991D601ED91FC917B
:1001A0000190F081E02DC6010995080F191FF1CFCC
:1001B000C801DF91CF911F910F91FF90EF90DF90D9
:1001C000CF900895833081F028F4813099F0823007
:1001D000A1F008958630A9F08730B9F08430D1F4C9
:1001E000809180008F7D03C0809180008F77809305
:1001F0008000089584B58F7702C084B58F7D84BD5B
:1002000008958091B0008F7703C08091B0008F7DFA
:100210008093B000089584E080938100109285005F
:10022000109284008091CE029091CF02019690931B
:10023000CF028093CE0208950F931F93CF93DF9345
:10024000EC0188819981009729F02A813B8126174A
:10025000370788F48B016F5F7F4F0E94121A009757
:1002600061F0998388831B830A832C813D81232B32
:1002700011F4FC01108281E001C080E0DF91CF9198
:100280001F910F910895CF93DF93EC01888199819D
:10029000009711F00E947A19198218821D821C821F
:1002A0001B821A82DF91CF910895EF92FF920F93F4
:1002B0001F93CF93DF93EC017B018A01BA010E9467
:1002C0001C01811104C0CE010E94430107C01D839F
:1002D0000C83B701888199810E94E51ACE01DF91D4
:1002E000CF911F910F91FF90EF900895CF93DF93DF
:1002F000EC016115710559F0FB0101900020E9F74F
:100300003197AF01461B570B0E94550102C00E9456
:100310004301CE01DF91CF910895FC01808191814D
:100320000C947A19FB01DC0111961C921E92139613
:100330001C921E92129715961C921E921497169656
:100340001C928617970749F06081718161157105CC
:1003500021F0448155810C9455010895FC011182CE
:100360001082138212821582148216826115710521
:1003700051F0FB0101900020E9F73197AF01461BD6
:10038000570B0C94550108958E3008F08E508770ED
:10039000806480937C0080917A00806480937A00EE
:1003A00080917A0086FDFCCF8091780020917900C1
:1003B00090E0922B0895CF93DF93282F30E0F9013E
:1003C000E85FFE4F8491F901EC50FF4FD491F901A1
:1003D000E052FF4FC491CC2391F081110E94E200C2
:1003E000EC2FF0E0EE0FFF1FEA52FF4FA591B49102
:1003F000EC91ED2381E090E021F480E002C080E008
:1004000090E0DF91CF9108951F93CF93DF93282F32
:1004100030E0F901E85FFE4F8491F901EC50FF4FA5
:10042000D491F901E052FF4FC491CC23C9F0162FAB
:1004300081110E94E200EC2FF0E0EE0FFF1FE45369
:10044000FF4FA591B4918FB7F894111105C09C91FD
:10045000ED2FE095E92302C0EC91ED2BEC938FBFDB
:10046000DF91CF911F910895CF93DF9390E0FC012E
:10047000EC50FF4F2491FC01E052FF4F8491882300
:1004800061F190E0880F991FFC01EE53FF4FC59179
:10049000D491FC01E453FF4FA591B491611109C0BF
:1004A0009FB7F8948881209582238883EC912E232E
:1004B0000BC0623061F49FB7F8943881822F809529
:1004C00083238883EC912E2B2C939FBF06C08FB77C
:1004D000F894E8812E2B28838FBFDF91CF91089568
:1004E0001F920F920FB60F9211242F933F934F93A9
:1004F0005F936F937F938F939F93AF93BF93EF938C
:10050000FF938091740290917502892B29F0E091FC
:100510007402F09175020995FF91EF91BF91AF912F
:100520009F918F917F916F915F914F913F912F910B
:100530000F900FBE0F901F9018951F920F920FB63D
:100540000F9211242F933F934F935F936F937F9359
:100550008F939F93AF93BF93EF93FF93809172021A
:1005600090917302892B29F0E0917202F09173024D
:100570000995FF91EF91BF91AF919F918F917F91DD
:100580006F915F914F913F912F910F900FBE0F9000
:100590001F9018952FB7F8946091D5027091D602EC
:1005A0008091D7029091D8022FBF08951F920F9289
:1005B0000FB60F9211242F933F938F939F93AF9376
:1005C000BF938091D5029091D602A091D702B091AD
:1005D000D8023091D40223E0230F2D3720F4019666
:1005E000A11DB11D05C026E8230F0296A11DB11D56
:1005F0002093D4028093D5029093D602A093D70281
:10060000B093D8028091D0029091D102A091D202F1
:10061000B091D3020196A11DB11D8093D002909399
:10062000D102A093D202B093D302BF91AF919F9118
:100630008F913F912F910F900FBE0F901F901895A3
:1006400061E089E00C9404027093A5026093A40217
:1006500081111DC060E089E00E94040210928100B7
:1006600010926F00109280001092810010929602FA
:100670001092970210929802109299021092F4032D
:100680001092F5031092F6031092F7030895643662
:10069000710511F40C94200383E080936F00072E02
:1006A000000C880B990B0E94161C20E030E048ECEF
:1006B00052E40E946C1B60939202709393028093A9
:1006C00094029093950220E030E042E054E40E94CE
:1006D0001B1D0E94DE1B709391026093900228E024
:1006E00032E0C901861B970B90938F0280938E0294
:1006F0008836910534F488E690E0909389008093E1
:10070000880080918E0290918F028D3621E09207B1
:1007100014F08CE691E0909389008093880008950E
:100720000F931F9384E690E09093A5028093A40218
:100730000E94200380919A0290919B02A0919C02BA
:10074000B0919D02892B8A2B8B2B69F40E94CA02DF
:1007500060939A0270939B0280939C0290939D02F7
:1007600081E080937F020E94CA0200919A02109158
:100770009B0220919C0230919D02DC01CB01801BE9
:10078000910BA20BB30B81399F45A140B1057CF0C1
:1007900060E070E080E00E94240310929A021092C0
:1007A0009B0210929C0210929D0210927F021F9158
:1007B0000F91089560E070E080E00E94240387E0DC
:1007C0000E94DB01019721F460E087E00E940402AF
:1007D00084E00E94DB01019721F460E084E00E9444
:1007E000040283E00E94DB01019721F460E083E0D2
:1007F0000E940402809184028111109284028091EF
:100800007A02811110927A02809176029091770299
:10081000A0917802B0917902892B8A2B8B2B41F021
:10082000109276021092770210927802109279025A
:1008300080919A0290919B02A0919C02B0919D029E
:10084000892B8A2B8B2B41F010929A0210929B02DB
:1008500010929C0210929D0280917B0290917C02EA
:10086000A0917D02B0917E02892B8A2B8B2B41F0C7
:1008700010927B0210927C0210927D0210927E02F6
:100880008091890290918A02A0918B02B0918C0292
:10089000892B8A2B8B2B41F01092890210928A02AD
:1008A00010928B0210928C0280918D028111109215
:1008B0008D028091850290918602A0918702B0916D
:1008C0008802892B8A2B8B2B41F010928502109283
:1008D0008602109287021092880280918002909185
:1008E0008102A0918202B0918302892B8A2B8B2BEB
:1008F00041F01092800210928102109282021092B6
:1009000083028091960290919702A0919802B091F3
:100910009902892B8A2B8B2B41F010929602109210
:10092000970210929802109299028091A2029091DF
:10093000A302892B21F01092A3021092A202089523
:100940000F931F938823D9F061E087E00E9404028F
:1009500080919E0290919F02A091A002B091A1026D
:10096000892B8A2B8B2B61F50E94CA0260939E0211
:1009700070939F028093A0029093A10221C00E94D5
:10098000CA0200919E0210919F022091A002309114
:10099000A102DC01CB01801B910BA20BB30B8133B5
:1009A0009547A105B10564F060E087E00E9404026C
:1009B00010929E0210929F021092A0021092A10229
:1009C0001F910F910895CF92DF92EF92FF92BC0199
:1009D000990F880B990B0E94161C9B01AC0160E0DB
:1009E00070E080E894E40E946C1B20E030E040E876
:1009F0005FE30E94FA1A20E030E44CE156E40E94E2
:100A00001B1D0E94D31C6B017C0129E537E44CEBD4
:100A100053E30E941B1DA70196010E941B1D23E7A3
:100A20003FE745E759E30E94FB1AA70196010E94A0
:100A30001B1D2BEE3FEF43E95AE30E94FB1A9B017B
:100A4000AC0160E070E080E89FE30E946C1B23E350
:100A500033E948E853E40E94FA1AFF90EF90DF90E0
:100A6000CF9008951F920F920FB60F9211242F93DB
:100A70003F934F935F936F937F938F939F93AF9326
:100A8000BF93EF93FF9360E089E00E94040210920D
:100A90008100FF91EF91BF91AF919F918F917F91D5
:100AA0006F915F914F913F912F910F900FBE0F90DB
:100AB0001F9018951F920F920FB60F9211242F932B
:100AC0003F934F935F936F937F938F939F93AF93D6
:100AD000BF93EF93FF9361E089E00E9404028CEFE3
:100AE0009FEF9093850080938400FF91EF91BF91D9
:100AF000AF919F918F917F916F915F914F913F91B6
:100B00002F910F900FBE0F901F9018950F931F936A
:100B1000CF93DF938C01EB0187E291E00E94B9074C
:100B2000C8010E9418088DE291E00E94B907CE0129
:100B30000E941808DF91CF911F910F910C94AB0781
:100B4000CF92DF92EF92FF927C016B0187E291E0FE
:100B50000E94B907C7010E9418088DE291E00E9427
:100B6000B9070D2C000CEE08FF08F7FE0CC08DE253
:100B70000E94A00766277727CB016C197D098E0993
:100B80009F094AE003C04AE0C701B6010E94CB07B3
:100B9000FF90EF90DF90CF900C94AB0708950F93E8
:100BA0001F93CF93DF93FC01A685B7858D01005C71
:100BB0001F4FE8018881998101968F739927AD01B4
:100BC0004E5B5F4FEA012881398182179307D1F389
:100BD000E80128813981A20FB31F6C93A685B785E0
:100BE000A05CBF4F11969C938E93A689B7892C91D8
:100BF00081E090E0078C02C0880F991F0A94E2F709
:100C0000822B8C9381E081A30488F589E02D80817B
:100C10008064808381E090E0DF91CF911F910F91FC
:100C20000895FC0181A1882329F0A489B5898C91BC
:100C300086FFFBCF11A20895FC01A485B585FD01B7
:100C4000E05CFF4F208131813296808191812817AD
:100C5000390779F080819181A80FB91F8C9120818B
:100C600031812F5F3F4F2F7333273183208390E0F3
:100C700008958FEF9FEF0895DC011C96ED91FC9194
:100C80001D97DF01A05CBF4F2D913C9111971296EB
:100C90008D919C9111972817390739F08D919C916E
:100CA000E80FF91F808190E008958FEF9FEF08957E
:100CB000FC0124853585F901E05CFF4F808191813D
:100CC000329620813181821B930B8F73992708956F
:100CD0004F925F926F927F928F929F92AF92BF924C
:100CE000CF92DF92EF92FF920F931F93CF93DF93F8
:100CF00000D000D0CDB7DEB74C01270138010B8DF5
:100D00001C8DDC015D965C934E935C975B967C93A7
:100D10006E935A975F963C932E935E97D8961C924B
:100D2000FC0110AA11AA12AA13AA80E090E0AFE772
:100D3000B3E484AB95ABA6ABB7AB84E690E0A0E0A0
:100D4000B0E084A795A7A6A7B7A7118F008F20E0D2
:100D500030E0A901C301B2010E94671B87FD7AC080
:100D600020E030E0A901C601B5010E94671B87FDA4
:100D700071C020E030E0A9016F89788D898D9A8D4E
:100D80000E94671B87FD66C0D4014D925D926D92F3
:100D90007C921397F401A482B582C682D7828F8990
:100DA000988DA98DBA8D80879187A287B387448655
:100DB0005586668677862DEC3CEC4CEC5DE3C601EF
:100DC000B5010E941B1D69837A838B839C83F40188
:100DD000608B718B828B938B2DEC3CEC4CEC5DE348
:100DE0006F89788D898D9A8D0E946C1B6B017C01B7
:100DF000D40154966D937D938D939C9357970130B6
:100E0000110541F5A301920160E070E0CB010E9461
:100E1000FA1AF401648775878687978729813A8152
:100E20004B815C8160E070E0CB010E94FA1AD40132
:100E300050966D937D938D939C935397A701960144
:100E400060E070E0CB010E94FA1AF401648B758BAC
:100E5000868B978B0E94CA02D4019C960D911D919E
:100E60002D913C919F97DC01CB01801B910BA20B34
:100E7000B30BF40180A391A3A2A3B3A30F900F908F
:100E80000F900F90DF91CF911F910F91FF90EF90F6
:100E9000DF90CF90BF90AF909F908F907F906F909A
:100EA0005F904F900895EF92FF920F931F93CF930F
:100EB000DF9300D0CDB7DEB78AED92E00E945806EE
:100EC000892BA9F1EE24E3948AED92E00E94580662
:100ED000892B69F18AED92E00E941C06F82E898325
:100EE0001A8200910003109101030F5F1F4FB80198
:100EF0008CEF92E00E941C01882399F02091FC0263
:100F00003091FD028091000390910103BE016F5F5B
:100F10007F4F820F931F0E94E51A109301030093E5
:100F200000038AE0F812D0CFE092D902CDCF0F9023
:100F30000F90DF91CF911F910F91FF90EF90089547
:100F4000E091DA02F091DB020190F081E02D682F50
:100F50008AED92E00994CF93DF938DE00E94A00781
:100F6000EC018AE00E94A0078C0F9D1FDF91CF91BA
:100F70000895009769F0FC0101900020E9F731978E
:100F8000AF01481B590BBC018AED92E00C94BA00EA
:100F900080E090E008958F929F92AF92BF92EF927F
:100FA000FF920F931F93CF93DF93CDB7DEB7A19737
:100FB0000FB6F894DEBF0FBECDBF162F042F19A2B7
:100FC000423008F40AE07E0121E2E20EF11C802E9C
:100FD000912CA12CB12C612FA50194010E94BD1D63
:100FE000029F1019112481E0E81AF1081A3014F454
:100FF000105D01C0195CF7011083122F732FCA0115
:10100000232B242B252B39F7C7010E94B907A19662
:101010000FB6F894DEBF0FBECDBFDF91CF911F9109
:101020000F91FF90EF90BF90AF909F908F90089599
:10103000EF92FF920F931F93CF93DF937C01C0E059
:10104000D0E000E010E0F70184819581C817D9074E
:10105000D0F4E091DA02F091DB020190F081E02D12
:10106000D7012D913C912115310529F0D901AC0F03
:10107000BD1F6C9101C060E08AED92E00995080FF8
:10108000191F2196E0CFC801DF91CF911F910F91D9
:10109000FF90EF900895FC014481558180910003F9
:1010A000909101038417950780F08091FC02909144
:1010B000FD02009751F0608171816115710529F081
:1010C0000E94EC1A21E0892B09F020E0822F08957C
:1010D0008F929F92AF92BF92CF92DF92EF92FF9248
:1010E000CF93DF93EC0188AD811130C0EC8DFD8D85
:1010F000C080D180E280F380CCA2DDA2EEA2FFA26C
:10110000EA8DFB8D80819181A281B38188A799A707
:10111000AAA7BBA78CA89DA8AEA8BFA8A5019401AB
:10112000C701B6010E94C61C181664F088A899A8C9
:10113000AAA8BBA8A5019401C701B6010E94671B1C
:1011400087FF04C08CA29DA2AEA2BFA281E088AF9F
:10115000DF91CF91FF90EF90DF90CF90BF90AF9055
:101160009F908F9008952F923F924F925F926F922F
:101170007F928F929F92AF92BF92CF92DF92EF9227
:10118000FF920F931F93CF93DF93EC016A017B01D2
:1011900048015901A9019801C701B6010E94C61C66
:1011A00087FF4EC0C8AAD9AAEAAAFBAA8CAA9DAA00
:1011B000AEAABFAA88AD882309F442C02C8C3D8C0E
:1011C000F1014080518062807380A5019401C301C8
:1011D000B2010E94C61C181634F4F101808291827B
:1011E000A282B3820DC0A7019601C301B2010E9481
:1011F000671B87FF05C0F101C082D182E282F382C2
:101200008CA09DA0AEA0BFA0CCA8DDA8EEA8FFA892
:10121000A7019601C501B4010E94C61C181664F00E
:10122000C8A8D9A8EAA8FBA8A7019601C501B401DE
:101230000E94671B87FF04C0CCA2DDA2EEA2FFA222
:10124000DF91CF911F910F91FF90EF90DF90CF90A2
:10125000BF90AF909F908F907F906F905F904F90D6
:101260003F902F9008952F923F924F925F926F92EE
:101270007F928F929F92AF92BF92CF92DF92EF9226
:10128000FF920F931F93CF93DF93CDB7DEB72B97CA
:101290000FB6F894DEBF0FBECDBFDC01D896BC916F
:1012A000B983B11102C01982E4C09B878A870E946A
:1012B000CA026A837B838C839D83EA85FB8580A138
:1012C00091A1A2A1B3A14A815B816C817D81481B60
:1012D000590B6A0B7B0B84A595A5A6A5B7A5481746
:1012E00059076A077B07F8F2028CF38DE02D8080A6
:1012F0009180A280B380AA85BB855E96ED91FC911A
:101300005F97A501940160817181828193810E9420
:10131000FA1A2B013C01EA85FB8520893189428933
:1013200053890E941B1DAA85BB8594962D913D91E2
:101330004D915C9197970E94FB1A6B017C01EA85A5
:10134000FB8564A375A386A397A324A835A806A943
:1013500017A99101A8010E94C61C18161CF4C1010E
:10136000D80118C0AA85BB85D0968D919D910D900E
:10137000BC91A02D8E839F83A887B9879C01AD0166
:10138000C701B6010E94671B87FF0AC08E819F813B
:10139000A885B985EA85FB8584A395A3A6A3B7A3F1
:1013A000AA85BB851C962D913D914D915C911F970F
:1013B000C301B2010E941B1DEA85FB8524A135A152
:1013C00046A157A10E94FB1A6B017C01AA85BB852F
:1013D00098962D913D914D915C919B97C501B401DB
:1013E0000E94FA1AEA85FB8524893589468957893E
:1013F0000E941B1D9B01AC01C701B6010E94FA1A95
:101400006B017C019101A8010E94C61C1816BCF05A
:10141000AA85BB85D0962C90D097D1963C90D19739
:10142000D2960C91D297D3961C919101A801B60146
:10143000C7010E94671B87FD02C016018701AA85AC
:10144000BB855C96ED91FC915D97C101D8018083CD
:101450009183A283B383EA85FB8580A691A6A2A689
:10146000B3A68A819B81AC81BD8180A391A3A2A3F5
:10147000B3A389812B960FB6F894DEBF0FBECDBF04
:10148000DF91CF911F910F91FF90EF90DF90CF9060
:10149000BF90AF909F908F907F906F905F904F9094
:1014A0003F902F9008951F920F920FB60F92112424
:1014B0002F933F938F939F93EF93FF932091FF047C
:1014C0003091000580910105909102052817390798
:1014D00031F48091C1008F7D8093C10014C0E091F0
:1014E0000105F0910205E154FB4F20818091010537
:1014F0009091020501968F7399279093020580932E
:1015000001052093C600FF91EF919F918F913F912C
:101510002F910F900FBE0F901F9018951F920F9252
:101520000FB60F9211242F934F935F938F939F9336
:10153000EF93FF938091C00082FD1CC02091C600F4
:10154000809143059091440501968F7399274091AE
:101550004505509146058417950771F0E0914305C4
:10156000F0914405ED5FFA4F2083909344058093FA
:10157000430502C08091C600FF91EF919F918F912A
:101580005F914F912F910F900FBE0F901F90189564
:10159000CF93DF93CDB7DEB7C655D1090FB6F89418
:1015A000DEBF0FBECDBF789484B5826084BD84B5A4
:1015B000816084BD85B5826085BD85B5816085BD4E
:1015C00080916E00816080936E0010928100809106
:1015D000810082608093810080918100816080938E
:1015E0008100809180008160809380008091B100B3
:1015F00084608093B1008091B00081608093B000DE
:1016000080917A00846080937A0080917A00826071
:1016100080937A0080917A00816080937A00809133
:101620007A00806880937A001092C10060E082E0C6
:101630000E94340261E082E00E94040261E089E0DD
:101640000E94340260E089E00E94040261E087E0C9
:101650000E94340260E087E00E94040261E089E0B9
:101660000E94340260E089E00E94040261E083E0AD
:101670000E94340260E083E00E94040261E084E0A2
:101680000E94340260E084E00E94040261E086E08F
:101690000E94340260E086E00E94040262E085E07D
:1016A0000E94340262E08DE00E94340262E08CE02D
:1016B0000E94340262E08BE00E94340262E08AE021
:1016C0000E94340200E010E020EA32E440E050E002
:1016D00060EF71E48CEF93E00E94B30860912804FE
:1016E0007091290480912A0490912B040E94141C6B
:1016F0009B01AC0160E070E88BE395E40E946C1BF9
:101700006B017C019B01AC0160910C0470910D0494
:1017100080910E0490910F040E941B1D60930C0495
:1017200070930D0480930E0490930F04A70196010B
:10173000609110047091110480911204909113042F
:101740000E946C1B60931004709311048093120428
:101750009093130428EBC22E2BE0D22EE12CF12C17
:10176000C0922804D0922904E0922A04F0922B041B
:1017700000E010E02AE233E440E050E068EC72E47C
:101780008BEB93E00E94B3086091E7037091E8034C
:101790008091E9039091EA030E94141C9B01AC0123
:1017A00060E070E88BE395E40E946C1B4B015C01E8
:1017B0009B01AC016091CB037091CC038091CD0370
:1017C0009091CE030E941B1D6093CB037093CC03BA
:1017D0008093CD039093CE03A50194016091CF0334
:1017E0007091D0038091D1039091D2030E946C1B21
:1017F0006093CF037093D0038093D1039093D2036F
:10180000C092E703D092E803E092E903F092EA0382
:1018100000E010E028EC32E440E050E060E772E4E1
:101820008EE793E00E94B3086091AA037091AB0326
:101830008091AC039091AD030E94141C9B01AC01FC
:1018400060E070E88BE395E40E946C1B4B015C0147
:101850009B01AC0160918E0370918F038091900386
:10186000909191030E941B1D60938E0370938F03D0
:101870008093900390939103A5019401609192034A
:101880007091930380919403909195030E946C1B37
:1018900060939203709393038093940390939503C2
:1018A000C092AA03D092AB03E092AC03F092AD03D6
:1018B0008CEF93E00E9468088BEB93E00E9468082D
:1018C0008EE793E00E94680884E690E09093890098
:1018D0008093880083E080936F00109280001092C4
:1018E00081008BE091E0909373028093720280916B
:1018F0006900836080936900E89AE091EE02F091BC
:10190000EF0281E090E09C010090FA0202C0220FF9
:10191000331F0A94E2F72083E091EA02F091EB0290
:101920001082E091EC02F091ED022FEC20831092F6
:10193000FB02E091F002F091F10240819C010090E5
:10194000F60202C0220F331F0A94E2F7242B2083F1
:10195000E091F002F091F10240819C010090F702C9
:1019600002C0220F331F0A94E2F7242B2083E09158
:10197000F002F091F10240819C010090F80202C057
:10198000220F331F0A94E2F7242B2083E091F00208
:10199000F091F10220810090F90202C0880F991F96
:1019A0000A94E2F780958223808368EC70E08CEFE4
:1019B00092E00E941C0187E291E00E94B90783E750
:1019C00093E00E9418088DE291E00E94B90783E03D
:1019D00093E00E9418080E94AB078E010F5F1F4F13
:1019E00083E00E94C4010E94E3040E94DE1B072ED4
:1019F000000C880B990B0E94161C6093F8037093DF
:101A0000F9038093FA039093FB0320E030E04AEA65
:101A100052E40E94C61C18164CF584E090E09093A6
:101A2000CB028093CA0283E090E09093CD02809332
:101A3000CC026FE271E088EB94E00E94760168E1ED
:101A400073E0C8010E94920163E773E0CE01C9967A
:101A50000E949201B801CE01C9960E948605CE016E
:101A6000C9960E948D01C8010E948D0186E00E94E6
:101A7000C4010E94E3040E94DE1B7093C5026093C0
:101A8000C402683371050CF44AC084E090E090937E
:101A9000CD028093CC0267E371E088EB94E00E9472
:101AA000760168EB74E0C8010E94920167E573E07B
:101AB000CE01C9960E949201B801CE01C9960E943A
:101AC0008605CE01C9960E948D01C8010E948D0134
:101AD0008091CC029091CD0227E0289FB001299FF0
:101AE000700D11246D5F7C4FC8010E94920163E765
:101AF00073E0CE01C9960E949201B801CE01C99649
:101B00000E948605CE01C9960E948D01C8010E94DF
:101B10008D016EE271E088EB94E00E94760185E031
:101B20000E94DB01019741F58091CC029091CD029A
:101B30000197029708F51092CB021092CA0283E037
:101B400090E09093CD028093CC0268E173E0C801ED
:101B50000E94920163E773E0CE01C9960E94920150
:101B6000B801CE01C9960E948605CE01C9960E9491
:101B70008D01C8010E948D018DE00E94DB0101975B
:101B800009F05DC08091C6029091C702A091C80281
:101B9000B091C902892B8A2B8B2B51F40E94CA0267
:101BA0006093C6027093C7028093C8029093C902E3
:101BB0000E94CA02C090C602D090C702E090C8023C
:101BC000F090C902DC01CB018C199D09AE09BF0957
:101BD0008D3D9540A105B1056CF18091CC029091AD
:101BE000CD02059739F01092CD021092CC0263E03D
:101BF00073E002C066E273E0C8010E94920163E7ED
:101C000073E0CE01C9960E949201B801CE01C99637
:101C10000E948605CE01C9960E948D01C8010E94CE
:101C20008D011092C6021092C7021092C802109243
:101C3000C90205C08DE00E94DB01892B91F38091E0
:101C4000D9028823C9F165E471E0C8010E94AE01A0
:101C5000C8010E944B08F82EC8010E948D01FF2088
:101C600059F16EE271E08CEF92E00E9476016EE233
:101C700071E088EB94E00E9476011092D90285E031
:101C800090E09093CD028093CC0266E273E0C801AD
:101C90000E94920163E773E0CE01C9960E9492010F
:101CA000B801CE01C9960E948605CE01C9960E9450
:101CB0008D01C8010E948D01E090CC02F090CD0210
:101CC00032E0E316F10409F41DC244F4E114F10416
:101CD00091F0EA94EF2809F44DC0AFC684E0E8160D
:101CE000F10409F428C50CF400C4A5E0EA16F104D7
:101CF00009F4C0C5A2C60E94DA0385E00E94DB0198
:101D0000892B09F09AC681E090E09093CD028093F0
:101D1000CC0210929A0210929B0210929C02109296
:101D20009D026EE271E088EB94E00E9476011092D1
:101D300084026AE073E0CE01C9960E94920163E7D3
:101D400073E0C8010E949201BE01675C7F4FC80129
:101D50000E948605C8010E948D01CE01C9960E948D
:101D60008D0168EB74E0CE01C9960E94920167E58F
:101D700073E034C58091A2029091A30203975CF1B5
:101D800084E090E09093CD028093CC0265E571E011
:101D900088EB94E00E94760168EB74E0C8010E9431
:101DA000920167E573E0CE01C9960E949201B801E5
:101DB000CE01C9960E948605CE01C9960E948D016A
:101DC000C8010E948D016EE271E088EB94E00E94F0
:101DD0007601109284028091C2029091C302C3974F
:101DE0000CF488C08091850290918602A0918702B0
:101DF000B0918802892B8A2B8B2B51F40E94CA0246
:101E00006093850270938602809387029093880284
:101E10000E94CA02C0908502D0908602E09087029C
:101E2000F0908802DC01CB018C199D09AE09BF0935
:101E3000813D9740A105B1050CF464C060E083E0EA
:101E40000E94040260E084E00E94040210927F027B
:101E500082E090E09093CD028093CC021092A30296
:101E60001092A20261E173E0CE01C9960E94920134
:101E700063E773E0C8010E949201BE01675C7F4F77
:101E8000C8010E948605C8010E948D01CE01C99635
:101E90000E948D0110929A0210929B0210929C0255
:101EA00010929D02109276021092770210927802A0
:101EB0001092790210927B0210927C0210927D02A5
:101EC00010927E0281E080938D020E94CA0260938C
:101ED000890270938A0280938B0290938C021092F5
:101EE0008502109286021092870210928802109248
:101EF000840208C010928502109286021092870216
:101F0000109288028091A2029091A302892B71F411
:101F10000E94900380917F02811108C081E090E0CF
:101F20009093A3028093A20280938402E090A20285
:101F3000F090A3021E141F040CF0D1C08091840203
:101F4000882309F478C060E070E080E00E942403F8
:101F500080917B0290917C02A0917D02B0917E02E3
:101F6000892B8A2B8B2B51F40E94CA0260937B022F
:101F700070937C0280937D0290937E028091A602F2
:101F80009091A702892B19F50E94CA0280907B02CA
:101F900090907C02A0907D02B0907E02DC01CB018B
:101FA00088199909AA09BB09813B9D4AA140B1053D
:101FB00074F060E083E00E9404021092840281E0E9
:101FC00090E09093A7028093A60280937A02C0903B
:101FD000A602D090A7021C141D042CF50E94CA0270
:101FE00080907B0290907C02A0907D02B0907E0257
:101FF000DC01CB0188199909AA09BB0989389341E9
:10200000A105B10584F060E083E00E9404025FEF67
:10201000C51AD50AD092A702C092A60210928402D5
:1020200081E080937A0261E083E00E94040260E034
:1020300084E00E94040280917A02882309F44FC050
:102040008091760290917702A0917802B091790206
:10205000892B8A2B8B2B51F40E94CA026093760243
:102060007093770280937802909379020E94CA025B
:102070008090760290907702A0907802B0907902DA
:10208000DC01CB0188199909AA09BB0981349E4753
:10209000A540B105BCF060E084E00E9404020E940B
:1020A000900380917F0281111AC03FEFE31AF30A77
:1020B000F092A302E092A20210927A0281E0809351
:1020C00084020DC061E084E00E94040260E070E0E0
:1020D00080E00E94240360E083E00E94040220E08C
:1020E00030E048E452E46091F8037091F903809184
:1020F000FA039091FB030E94C61C18160CF0A0C0B6
:1021000081E09FC080918D0281119EC08CEF93E091
:102110000E9433098BEB93E00E9433098EE793E032
:102120000E9433098091C2029091C30288379105C1
:102130000CF4ABC0C090F803D090F903E090FA0320
:10214000F090FB0320E030E048E452E4C701B60120
:102150000E94671B87FF19C184E690E09093A50257
:102160008093A4020E94200320E030E048EC52E477
:102170006091B7037091B8038091B9039091BA034D
:102180000E946C1B20E030E84BEB56E40E941B1DC4
:102190000E94E51B6B017C016093AC027093AD0261
:1021A0008093AE029093AF0220E030E048EC52E41E
:1021B00060917A0370917B0380917C0390917D0301
:1021C0000E946C1B20E030E44CE156E40E941B1D91
:1021D0000E94E51B4B015C016093A8027093A90269
:1021E0008093AA029093AB0280910001811109C1F2
:1021F00080910001882309F440C120E030E048E4E8
:1022000052E46091F8037091F9038091FA03909180
:10221000FB030E94C61C18161CF481E00E94A00457
:1022200020E030E048E452E46091F8037091F90353
:102230008091FA039091FB030E94671B87FFFDC307
:1022400080E00E94A004F9C30E94CA02C0908902E3
:10225000D0908A02E0908B02F0908C02DC01CB01DE
:102260008C199D09AE09BF09813E9349A440B1056F
:102270000CF44CCF1092890210928A0210928B02B9
:1022800010928C0210928D0241CF80918502909124
:102290008602A0918702B0918802892B8A2B8B2B12
:1022A00051F40E94CA026093850270938602809363
:1022B0008702909388020E94CA02C0908502D09043
:1022C0008602E0908702F0908802DC01CB018C1935
:1022D0009D09AE09BF0989389341A105B10504F1F3
:1022E00081E090E09093CD028093CC021092840222
:1022F0006AE073E0C8010E94920163E773E0CE01D7
:10230000C9960E949201B801CE01C9960E94860525
:10231000CE01C9960E948D01C8010E948D012CC07A
:102320008091800290918102A0918202B0918302FB
:10233000892B8A2B8B2B51F40E94CA026093800256
:102340007093810280938202909383020E94CA025A
:10235000C0908002D0908102E0908202F0908302CF
:10236000DC01CB018C199D09AE09BF098938934165
:10237000A105B1050CF4DECE109285021092860202
:102380001092870210928802D5CE20E030E046E914
:1023900052E4C701B6010E94C61C181624F582E05B
:1023A00090E09093CB028093CA0283E090E09093F8
:1023B000CD028093CC0268E173E0C8010E949201D3
:1023C00063E773E0CE01C9960E949201B801CE0185
:1023D000C9960E948605CE01C9960E948D01C8014A
:1023E0000E948D01C1CE6091F4037091F50380913C
:1023F000F6039091F7030E94DE1B81E00E94240304
:10240000B3CE8091B4029091B502A091B602B09182
:10241000B702892B8A2B8B2B51F40E94CA0260933E
:10242000B4027093B5028093B6029093B7020E94F3
:10243000CA024090B4025090B5026090B60270900B
:10244000B702DC01CB0184199509A609B7098816E2
:102450009906AA06BB0660F4109200011092B4021D
:102460001092B5021092B6021092B70260E001C05D
:1024700061E083E00E940402BBCE8091B0029091A3
:10248000B102A091B202B091B302892B8A2B8B2B9F
:1024900051F40E94CA026093B0027093B10280931B
:1024A000B2029093B3020E94CA028090B002909050
:1024B000B102A090B202B090B302DC01CB01881946
:1024C0009909AA09BB09C816D906EA06FB0608F04D
:1024D00094CE1092B0021092B1021092B2021092F9
:1024E000B30281E08093000188CEE090CA02F090B0
:1024F000CB0260E083E00E94040260E084E00E947E
:10250000040281E00E94A0048090F8039090F903F7
:10251000A090FA03B090FB0320E030E044E952E4DD
:10252000C501B4010E94C61C18160CF486C2409066
:102530000101509002016090030170900401A30119
:102540009201C501B4010E94C61C18160CF075C298
:1025500032E0E316F10409F4D9C044E0E416F104D2
:10256000B9F468EB74E0C8010E94920167E573E07A
:10257000CE01C9960E949201B801CE01C9960E946F
:102580008605CE01C9960E948D01C8010E948D0169
:1025900060E083E00E94040260E084E00E940402A4
:1025A00020E030E040EE50E46091010170910201C2
:1025B00080910301909104010E94FB1A9B01AC01E0
:1025C0006091F8037091F9038091FA039091FB03F5
:1025D0000E94C61C181634F460E070E080E00E948F
:1025E000240308C084E690E09093A5028093A4029F
:1025F0000E9420038091C2029091C302C39744F0CD
:1026000010929A0210929B0210929C0210929D02CC
:1026100020E030E040E050E460910101709102015F
:1026200080910301909104010E94FA1A9B01AC0170
:102630006091F8037091F9038091FA039091FB0384
:102640000E94671B87FF56C080E00E94A004809113
:102650009A0290919B02A0919C02B0919D02892BBD
:102660008A2B8B2B51F40E94CA0260939A027093BA
:102670009B0280939C0290939D020E94CA028090CC
:102680009A0290909B02A0909C02B0909D02DC0167
:10269000CB0188199909AA09BB0981349E47A54035
:1026A000B1050CF4CAC160E070E080E00E94240330
:1026B000F092CD02E092CC0287E08E9DB0018F9D1A
:1026C000700D11246D5F7C4FC8010E94920163E779
:1026D00073E0CE01C9960E949201B801CE01C9965D
:1026E0000E948605CE01C9960E948D01C8010E94F4
:1026F0008D0103C081E00E94A00410929A02109202
:102700009B0210929C0210929D0297C120E030E043
:1027100040E050E4C301B2010E94FB1A9B01AC01EE
:10272000C501B4010E94671B87FF87C1F092CD02EB
:10273000E092CC0282C160E070E080E00E9424035D
:1027400060E083E00E94040260E084E00E940402F2
:1027500020E030E04CE752E46091F8037091F90317
:102760008091FA039091FB030E94C61C18165CF43A
:10277000F092CB02E092CA0283E090E09093CD0207
:102780008093CC0202C00E94DA038091D902882390
:1027900009F453C165E471E0C8010E94AE01C801AB
:1027A0000E944B08F82EC8010E948D01FF2039F1CC
:1027B0006EE271E08CEF92E00E9476011092D902F5
:1027C00085E090E09093CD028093CC0266E273E0C6
:1027D000CE01C9960E94920163E773E0C8010E948E
:1027E0009201BE01675C7F4FC8010E948605C80147
:1027F0000E948D01CE01C9960E948D011EC160917B
:10280000FC027091FD026115710549F040910003D1
:102810005091010388EB94E00E94550104C088EBBD
:1028200094E00E94430168EB74E0CE01C9960E94D7
:10283000920167E573E0C8010E949201BE01675CE6
:102840007F4FC8010E948605C8010E948D01CE01FC
:10285000C9960E948D016EE271E088EB94E00E94BF
:1028600076016EE271E08CEF92E00E9476011092A8
:10287000D902E3C01092A3021092A2021092B402F5
:102880001092B5021092B6021092B7021092B002E6
:102890001092B1021092B2021092B30210929E02F4
:1028A00010929F021092A0021092A1021092C602F2
:1028B0001092C7021092C8021092C9026EE271E033
:1028C00088EB94E00E94760120E030E04CE752E48F
:1028D0006091F8037091F9038091FA039091FB03E2
:1028E0000E94C61C18163CF08091C2029091C3024F
:1028F000893791056CF085E090E09093CB0280934E
:10290000CA0283E090E09093CD028093CC0202C093
:102910000E94DA038091D902882309F48EC065E60B
:1029200071E0C8010E94AE01C8010E944B08F82E58
:10293000C8010E948D01FF2079F16EE271E08CEFF9
:1029400092E00E9476011092D9021092CD0210926C
:10295000CC026EE271E088EB94E00E94760168EBB5
:1029600074E0CE01C9960E94920167E573E0C80148
:102970000E949201BE01675C7F4FC8010E948605DC
:10298000C8010E948D01CE01C9960E948D0110924E
:10299000A3021092A20251C064E771E0C8010E9434
:1029A000AE01C8010E944B08F82EC8010E948D019B
:1029B000FF20B9F06EE271E08CEF92E00E947601A8
:1029C0001092D90220E030E040E85FE3609101011D
:1029D0007091020180910301909104010E94FB1A01
:1029E00024C066E871E0C8010E94AE01C8010E94DF
:1029F0004B08F82EC8010E948D01FF20F1F06EE215
:102A000071E08CEF92E00E9476011092D90220E0F2
:102A100030E040E85FE36091010170910201809134
:102A20000301909104010E94FA1A609301017093CE
:102A3000020180930301909304018091D9028823BD
:102A400041F06EE271E08CEF92E00E94760110920C
:102A5000D902E090CC02F090CD02C7010197039714
:102A600008F0B2C10E94CA028090B8029090B902E8
:102A7000A090BA02B090BB029B01AC0128193909A1
:102A80004A095B0949015A013FE183169104A104F7
:102A9000B10408F491C06093B8027093B9028093B6
:102AA000BA029093BB0282E00E94C401AC01809103
:102AB0003504811104C08091360480933504E0917F
:102AC0003504E150E0933504F0E0EE0FFF1FEB5CBE
:102AD000FB4F638174814617570771F4E091370407
:102AE000F0E0EE0FFF1FE858FB4F8081918190933B
:102AF000C3028093C20260C0548343838091360432
:102B0000982F992361F09150E92FF0E0EE0FFF1F0D
:102B1000E858FB4F208131816217730791F7E92F45
:102B2000F0E09F01220F331F2B5C3B4FD901AD5BBF
:102B3000BF4F4D935C9364177507F4F49F5FEFEFFD
:102B4000E90F981758F6F0E0EE0FFF1FE858FB4F1B
:102B500020813181A92FB0E0AA0FBB1FA858BB4F1D
:102B60004D915C911197421753070CF0B7CF5183E9
:102B700040832D933C93E2CFC901309709F4AECF47
:102B8000DC01AF5BBF4F2D913C9102976C0145E496
:102B9000C40ED11CD6014D915C91421753070CF025
:102BA0009DCFBC016D5B7F4FDB014D935C93D601E4
:102BB0002D933C933197E1CF6091F8037091F90325
:102BC0008091FA039091FB030E94DE1B7AAF69AFFC
:102BD0008091C4029091C5029CAF8BAF8091C202DC
:102BE0009091C3029EAF8DAF2196FFAEEEAE2197BE
:102BF0008091A4029091A50223969FAF8EAF239758
:102C000060917A0370917B0380917C0390917D03A6
:102C10000E94DE1B25967FAF6EAF25976091B703AC
:102C20007091B8038091B9039091BA030E94DE1BA2
:102C300027967FAF6EAF27976091010170910201D7
:102C400080910301909104010E94DE1B29967FAFC1
:102C50006EAF29976CE673E0C8010E94920165E6A9
:102C600073E0CE0108960E9492016EE573E0CE01FA
:102C70000F960E94920163E773E0CE0146960E9490
:102C8000920160E573E0CE014D960E94920169E4E5
:102C900073E0CE0184960E94920162E473E0CE015B
:102CA0008B960E94920164E373E0CE01C2960E946B
:102CB00092010E94CA028090BE029090BF02A09032
:102CC000C002B090C1029B01AC01281939094A0920
:102CD0005B0949015A0139EE831633E09306A104DA
:102CE000B10408F463C06093BE027093BF02809386
:102CF000C0029093C1028091BC029091BD028730C6
:102D0000910534F401969093BD028093BC0204C0F7
:102D10001092BD021092BC022091BC023091BD0203
:102D20002330310519F587E08E9DB0018F9D700D20
:102D300011246D5F7C4FCE01875B9F4F0E949201F3
:102D4000BE016A5E7F4FCE01805B9F4F0E94920161
:102D5000BE01675B7F4FCE01805B9F4F0E9486055F
:102D6000CE01805B9F4F0E948D011BC0F901EE0FC9
:102D7000FF1FE00FF11FE0ACF1AC47E0429FC00144
:102D8000439F900D1124B801680F791FCE01875B16
:102D90009F4F0E949201B701CE01875B9F4F0E9417
:102DA000A005CE01875B9F4F0E948D01AE01475C5D
:102DB0005F4F7A0157E0E51AF108C7010E948D01C3
:102DC000E016F106B9F780C00E94CA022091BC0249
:102DD0003091BD022230310524F01092BD021092D4
:102DE000BC02C090BE02D090BF02E090C002F09042
:102DF000C1029B01AC012C193D094E095F09690113
:102E00007A0131E3C31635E7D306E104F1040CF48B
:102E10005BC06093BE027093BF028093C002909328
:102E2000C1028091BC029091BD02181619060CF1E6
:102E30006091F8037091F9038091FA039091FB037C
:102E40000E94DE1B6B017C016CE673E0C8010E94EE
:102E50009201B601C8010E94A005C8010E948D011F
:102E60008091BC029091BD0201969093BD02809327
:102E7000BC028091BC029091BD02019729F580911E
:102E8000CC029091CD0227E0289FB001299F700DC0
:102E900011246D5F7C4FC8010E94920163E773E0CB
:102EA000CE01C9960E949201B801CE01C9960E9436
:102EB0008605CE01C9960E948D01C8010E948D0130
:102EC0001092BD021092BC020E9453070C94F00CA9
:102ED000CF93DF938CEF92E00E948D01C4E3D3E0A7
:102EE0002797CE010E948D0183E0C330D807C1F738
:102EF00084E393E00E948D018BE393E00E948D01B7
:102F000082E493E00E948D0189E493E00E948D01A8
:102F100080E593E00E948D0187E593E00E948D019A
:102F20008EE593E00E948D0185E693E00E948D017D
:102F30008CE693E00E948D0183E793E00E948D016F
:102F400088EB94E0DF91CF910C948D01AF92BF920A
:102F5000CF92DF92EF92FF920F931F93CF93DF9365
:102F60001092DD021092DC0288EE93E0A0E0B0E067
:102F70008093DE029093DF02A093E002B093E1021F
:102F80008FE091E09093DB028093DA0283E095E09A
:102F90009093E7028093E6028FEB94E09093E9022E
:102FA0008093E80285EC90E09093EB028093EA0234
:102FB00084EC90E09093ED028093EC0280EC90E042
:102FC0009093EF028093EE0281EC90E09093F102F7
:102FD0008093F00282EC90E09093F3028093F202EF
:102FE00086EC90E09093F5028093F40284E0809365
:102FF000F60283E08093F70287E08093F80285E091
:103000008093F90281E08093FA026EE271E088EB2E
:1030100094E00E94AE0180E28093350480933604F0
:1030200080E18093370480E221E030E08150E82F96
:10303000F0E0EE0FFF1FEB5CFB4F34832383ED5B6F
:10304000FF4F318320838111F1CF1F921F92DFE365
:10305000DF93C0E8CF931F921F928FE6A82E82E1E4
:10306000B82E83E8C82E8AE3D82EE12CF12C00E29A
:1030700011E421E031E044EF53E068EF73E08CEFBE
:1030800093E00E9468061F9281E08F93DF93CF93B5
:103090001F921F9221E031E047EB53E068EF73E0AD
:1030A0008BEB93E00E9468061F921F92DF93CF93F1
:1030B0001F921F9221E031E04AE753E068EF73E08E
:1030C0008EE793E00E94680668E971E083E793E089
:1030D0000E94AE0165EA71E08CE693E00E94AE01C9
:1030E00067EB71E085E693E00E94AE0169EC71E068
:1030F0008EE593E00E94AE0166ED71E087E593E016
:103100000E94AE0166EE71E080E593E00E94AE01A0
:1031100065EF71E089E493E00E94AE0165E072E042
:1031200082E493E00E94AE0166E172E08BE393E0FB
:103130000E94AE0169E272E084E393E00E94AE0176
:103140006EE372E083E093E00E94AE0163E472E01C
:103150008AE093E00E94AE016CE472E081E193E0CA
:103160000E94AE0164E572E088E193E00E94AE0146
:103170006EE572E08FE193E00E94AE0164E672E0DA
:1031800086E293E00E94AE0168E672E08DE293E091
:103190000E94AE018DB79EB742960FB6F8949EBFBF
:1031A0000FBE8DBF6EE271E08CEF92E0DF91CF91A8
:1031B0001F910F91FF90EF90DF90CF90BF90AF9055
:1031C0000C94AE01F8940C941C1ECF93DF938230C4
:1031D000910510F482E090E0E0914905F0914A05F4
:1031E00020E030E0C0E0D0E0309711F14081518123
:1031F00048175907C0F04817590761F48281938135
:10320000209719F09B838A832BC090934A05809363
:10321000490526C02115310519F04217530718F446
:103220009A01BE01DF01EF010280F381E02DDCCFC6
:103230002115310509F1281B390B2430310590F493
:1032400012968D919C9113976115710521F0FB01E8
:103250009383828304C090934A0580934905FD01BE
:10326000329644C0FD01E20FF31F819391932250E7
:1032700031092D933C933AC0209147053091480580
:10328000232B41F420910701309108013093480528
:103290002093470520910501309106012115310544
:1032A00041F42DB73EB74091090150910A01241B0A
:1032B000350BE0914705F0914805E217F307A0F4BC
:1032C0002E1B3F0B2817390778F0AC014E5F5F4F7C
:1032D0002417350748F04E0F5F1F50934805409361
:1032E00047058193919302C0E0E0F0E0CF01DF91C8
:1032F000CF9108950F931F93CF93DF93009709F415
:103300008CC0FC0132971382128200914905109102
:103310004A050115110581F420813181820F931F27
:1033200020914705309148052817390779F5F09322
:103330004805E093470571C0D80140E050E0AE1762
:10334000BF0750F412962D913C911397AD012115B2
:10335000310509F1D901F3CF9D01DA0133832283CD
:1033600060817181860F971F8217930769F4EC01C2
:1033700028813981260F371F2E5F3F4F31832083ED
:103380008A819B8193838283452B29F4F0934A059C
:10339000E093490542C01396FC93EE931297ED011A
:1033A000499159919E01240F351FE217F30771F4DB
:1033B00080819181840F951F029611969C938E9324
:1033C0008281938113969C938E931297E0E0F0E0B4
:1033D000D80112968D919C911397009719F0F801DE
:1033E0008C01F6CF8D919C9198012E5F3F4F820FFB
:1033F000931F20914705309148052817390769F434
:10340000309729F410924A051092490502C01382A0
:1034100012821093480500934705DF91CF911F91C9
:103420000F910895A0E0B0E0E8E1FAE10C94E31D0B
:10343000EC01009721F4CB010E94E518B8C0FC0113
:10344000E60FF71F9C0122503109E217F30708F439
:10345000ACC0D9010D911C91119706171707B0F058
:103460000530110508F49FC0C80104978617970717
:1034700008F499C002501109061B170B0193119310
:103480006D937C93CF010E947A198DC05B01A01AC5
:10349000B10A4C01800E911EA0914905B0914A05D8
:1034A00040E050E0E12CF12C109709F44AC0A81537
:1034B000B905D1F56D907C901197630182E0C80E3B
:1034C000D11CCA14DB0480F1A3014A195B096A010B
:1034D00082E0C80ED11C1296BC9012971396AC9144
:1034E000B5E0CB16D10440F0B282A3835183408370
:1034F000D9016D937C930AC00E5F1F4FC301800FEB
:10350000911FF90191838083EB2DFA2FE114F104CF
:1035100031F0D7011396FC93EE93129744C0F093C9
:103520004A05E09349053FC08D919C91119748173A
:10353000590708F4AC017D0112960D90BC91A02DA5
:10354000B3CF809147059091480588159905E1F41E
:1035500046175707C8F4809105019091060100971E
:1035600041F48DB79EB74091090150910A01841B27
:10357000950BE817F907C8F4F0934805E093470561
:10358000F901718360830FC0CB010E94E5187C01B3
:10359000009759F0A801BE010E94DC1ACE010E94DA
:1035A0007A19C70104C0CE0102C080E090E0CDB717
:1035B000DEB7EEE00C94FF1DFB01DC0102C00190C0
:1035C0000D9241505040D8F70895FB01DC01019065
:1035D0000D920020E1F70895FB01DC0141505040BD
:1035E00030F08D910190801919F40020B9F7881BF3
:1035F000990B08955058BB27AA270E94121B0C94C0
:103600008C1C0E947E1C38F00E94851C20F039F42E
:103610009F3F19F426F40C947B1C0EF4E095E7FB15
:103620000C94751CE92F0E949D1C58F3BA17620771
:1036300073078407950720F079F4A6F50C94BF1C56
:103640000EF4E0950B2EBA2FA02D0B01B9019001BD
:103650000C01CA01A0011124FF27591B99F0593F01
:1036600050F4503E68F11A16F040A22F232F342F49
:103670004427585FF3CF469537952795A795F04097
:103680005395C9F77EF41F16BA0B620B730B840BAC
:10369000BAF09150A1F0FF0FBB1F661F771F881F64
:1036A000C2F70EC0BA0F621F731F841F48F48795BC
:1036B00077956795B795F7959E3F08F0B0CF9395AE
:1036C000880F08F09927EE0F9795879508950E9427
:1036D000511C08F481E008950E94801B0C948C1CFE
:1036E0000E94851C58F00E947E1C40F029F45F3F28
:1036F00029F00C94751C51110C94C01C0C947B1C6B
:103700000E949D1C68F39923B1F3552391F3951BF7
:10371000550BBB27AA2762177307840738F09F5FF2
:103720005F4F220F331F441FAA1FA9F335D00E2E5F
:103730003AF0E0E832D091505040E695001CCAF7CC
:103740002BD0FE2F29D0660F771F881FBB1F26178F
:1037500037074807AB07B0E809F0BB0B802DBF0166
:10376000FF2793585F4F3AF09E3F510578F00C9435
:10377000751C0C94C01C5F3FE4F3983ED4F386950F
:1037800077956795B795F7959F5FC9F7880F911D56
:103790009695879597F90895E1E0660F771F881F42
:1037A000BB1F621773078407BA0720F0621B730BF5
:1037B000840BBA0BEE1F88F7E09508950E94E51B75
:1037C0006894B1110C94C01C08950E94A51C88F047
:1037D0009F5798F0B92F9927B751B0F0E1F0660FD5
:1037E000771F881F991F1AF0BA95C9F714C0B13016
:1037F00091F00E94BF1CB1E008950C94BF1C672F8C
:10380000782F8827B85F39F0B93FCCF38695779544
:103810006795B395D9F73EF490958095709561952D
:103820007F4F8F4F9F4F0895E89409C097FB3EF458
:1038300090958095709561957F4F8F4F9F4F9923FD
:10384000A9F0F92F96E9BB279395F695879577957B
:103850006795B795F111F8CFFAF4BB0F11F460FF3B
:103860001BC06F5F7F4F8F4F9F4F16C0882311F093
:1038700096E911C0772321F09EE8872F762F05C0A7
:10388000662371F096E8862F70E060E02AF09A9542
:10389000660F771F881FDAF7880F9695879597F937
:1038A0000895990F0008550FAA0BE0E8FEEF1616D1
:1038B0001706E807F907C0F012161306E407F50724
:1038C00098F0621B730B840B950B39F40A2661F098
:1038D000232B242B252B21F408950A2609F4A1403B
:1038E000A6958FEF811D811D089597F99F6780E848
:1038F00070E060E008959FEF80EC089500240A9442
:103900001616170618060906089500240A941216BA
:103910001306140605060895092E0394000C11F4ED
:10392000882352F0BB0F40F4BF2B11F460FF04C09A
:103930006F5F7F4F8F4F9F4F089557FD9058440FF3
:10394000551F59F05F3F71F04795880F97FB991FFE
:1039500061F09F3F79F087950895121613061406BB
:10396000551FF2CF4695F1DF08C016161706180648
:10397000991FF1CF86957105610508940895E89423
:10398000BB2766277727CB0197F908950E94511C22
:1039900008F48FEF089516F00C94881D0C947B1C8E
:1039A00068940C94751C0E94A51CA8F39923C1F37C
:1039B000AEF3DF93CF931F930F93FF92C92FDD27B1
:1039C00088232AF02197660F771F881FDAF720E0F7
:1039D00030E040E85FEB9FE3883920F0803E38F02C
:1039E00021968F770E94FB1AE8E6F0E004C00E945F
:1039F000FB1AE5E9F0E00E94961D8B01BE01EC0187
:103A0000FB2E6F5771097595771F880B990B0E94D4
:103A1000161C28E132E741E35FE30E942E1DAF2D23
:103A20009801AE01FF900F911F91CF91DF910E94FD
:103A3000121B0C948C1C0E942E1D0C948C1C0E943A
:103A40007E1C38F00E94851C20F0952311F00C9408
:103A5000751C0C947B1C11240C94C01C0E949D1C92
:103A600070F3959FC1F3950F50E0551F629FF001D1
:103A7000729FBB27F00DB11D639FAA27F00DB11DEA
:103A8000AA1F649F6627B00DA11D661F829F222773
:103A9000B00DA11D621F739FB00DA11D621F839FFA
:103AA000A00D611D221F749F3327A00D611D231FD0
:103AB000849F600D211D822F762F6A2F11249F571E
:103AC00050409AF0F1F088234AF0EE0FFF1FBB1F21
:103AD000661F771F881F91505040A9F79E3F5105E0
:103AE00080F00C94751C0C94C01C5F3FE4F3983E6E
:103AF000D4F3869577956795B795F795E7959F5F8A
:103B0000C1F7FE2B880F911D9695879597F908951B
:103B10009F3F31F0915020F4879577956795B79541
:103B2000880F911D9695879597F90895DF93CF9308
:103B30001F930F93FF92EF92DF927B018C016894A9
:103B400006C0DA2EEF010E942E1DFE01E894A59119
:103B50002591359145915591A6F3EF010E94121BD5
:103B6000FE019701A801DA9469F7DF90EF90FF90CA
:103B70000F911F91CF91DF910895A1E21A2EAA1BF8
:103B8000BB1BFD010DC0AA1FBB1FEE1FFF1FA2170D
:103B9000B307E407F50720F0A21BB30BE40BF50B0A
:103BA000661F771F881F991F1A9469F76095709593
:103BB000809590959B01AC01BD01CF0108952F9296
:103BC0003F924F925F926F927F928F929F92AF92AD
:103BD000BF92CF92DF92EF92FF920F931F93CF93FA
:103BE000DF93CDB7DEB7CA1BDB0B0FB6F894DEBF91
:103BF0000FBECDBF09942A88398848885F846E84B7
:103C00007D848C849B84AA84B984C884DF80EE8000
:103C1000FD800C811B81AA81B981CE0FD11D0FB609
:103C2000F894DEBF0FBECDBFED010895EE0FFF1F6C
:103C30000590F491E02D099410E0CFE8D0E004C0A5
:103C4000FE010E94161E2196C039D107C9F7F894CB
:023C5000FFCFA4
:103C52000100007C4200004B05200000000000CF64
:103C620005BA0058061C063C061106000020416FEA
:103C720012833A0000803F4D5154543A002F0054B1
:103C82006F6F20686F7400417567657220746F6F83
:103C920020686F74005475726E204F666620426F02
:103CA200696C6572006661696C656420746F20736B
:103CB20074617274005475726E204F6E20426F6987
:103CC2006C657200496E6372656173652053657439
:103CD200506F696E74004465637265617365205349
:103CE2006574506F696E7400626F696C65722F73D0
:103CF2007461746500626F696C65722F74656D70B2
:103D02002F776174657200626F696C65722F7465DA
:103D12006D702F617567657200626F696C65722FD5
:103D2200666C616D6500626F696C65722F6D65739B
:103D3200736167657300626F696C65722F70696485
:103D42002F66616E00626F696C65722F7069642FF5
:103D52006665656400626F696C65722F7069642FB5
:103D6200706175736500626F696C65722F7374613F
:103D720072745F636F756E7400626F696C65722F27
:103D820074656D702F736574706F696E7400496429
:103D92006C65005374617274696E67004865617482
:103DA200696E6700436F6F6C20646F776E004572B7
:103DB200726F72004F66660057696E6420646F7797
:023DC2006E0091
:00000001FF
